{
  "abi": [
    {
      "inputs": [
        {
          "internalType": "address",
          "name": "_coletador",
          "type": "address"
        },
        {
          "internalType": "address",
          "name": "_recicladora",
          "type": "address"
        },
        {
          "internalType": "string",
          "name": "_govCategory",
          "type": "string"
        }
      ],
      "stateMutability": "nonpayable",
      "type": "constructor"
    },
    {
      "anonymous": false,
      "inputs": [
        {
          "indexed": true,
          "internalType": "address",
          "name": "owner",
          "type": "address"
        },
        {
          "indexed": true,
          "internalType": "address",
          "name": "spender",
          "type": "address"
        },
        {
          "indexed": false,
          "internalType": "uint256",
          "name": "value",
          "type": "uint256"
        }
      ],
      "name": "Approval",
      "type": "event"
    },
    {
      "anonymous": false,
      "inputs": [
        {
          "indexed": false,
          "internalType": "address",
          "name": "account",
          "type": "address"
        }
      ],
      "name": "Paused",
      "type": "event"
    },
    {
      "anonymous": false,
      "inputs": [
        {
          "indexed": true,
          "internalType": "bytes32",
          "name": "role",
          "type": "bytes32"
        },
        {
          "indexed": true,
          "internalType": "bytes32",
          "name": "previousAdminRole",
          "type": "bytes32"
        },
        {
          "indexed": true,
          "internalType": "bytes32",
          "name": "newAdminRole",
          "type": "bytes32"
        }
      ],
      "name": "RoleAdminChanged",
      "type": "event"
    },
    {
      "anonymous": false,
      "inputs": [
        {
          "indexed": true,
          "internalType": "bytes32",
          "name": "role",
          "type": "bytes32"
        },
        {
          "indexed": true,
          "internalType": "address",
          "name": "account",
          "type": "address"
        },
        {
          "indexed": true,
          "internalType": "address",
          "name": "sender",
          "type": "address"
        }
      ],
      "name": "RoleGranted",
      "type": "event"
    },
    {
      "anonymous": false,
      "inputs": [
        {
          "indexed": true,
          "internalType": "bytes32",
          "name": "role",
          "type": "bytes32"
        },
        {
          "indexed": true,
          "internalType": "address",
          "name": "account",
          "type": "address"
        },
        {
          "indexed": true,
          "internalType": "address",
          "name": "sender",
          "type": "address"
        }
      ],
      "name": "RoleRevoked",
      "type": "event"
    },
    {
      "anonymous": false,
      "inputs": [
        {
          "indexed": true,
          "internalType": "address",
          "name": "from",
          "type": "address"
        },
        {
          "indexed": true,
          "internalType": "address",
          "name": "to",
          "type": "address"
        },
        {
          "indexed": false,
          "internalType": "uint256",
          "name": "value",
          "type": "uint256"
        }
      ],
      "name": "Transfer",
      "type": "event"
    },
    {
      "anonymous": false,
      "inputs": [
        {
          "indexed": false,
          "internalType": "address",
          "name": "account",
          "type": "address"
        }
      ],
      "name": "Unpaused",
      "type": "event"
    },
    {
      "inputs": [],
      "name": "DEFAULT_ADMIN_ROLE",
      "outputs": [
        {
          "internalType": "bytes32",
          "name": "",
          "type": "bytes32"
        }
      ],
      "stateMutability": "view",
      "type": "function"
    },
    {
      "inputs": [],
      "name": "DOMAIN_SEPARATOR",
      "outputs": [
        {
          "internalType": "bytes32",
          "name": "",
          "type": "bytes32"
        }
      ],
      "stateMutability": "view",
      "type": "function"
    },
    {
      "inputs": [],
      "name": "MINTER_ROLE",
      "outputs": [
        {
          "internalType": "bytes32",
          "name": "",
          "type": "bytes32"
        }
      ],
      "stateMutability": "view",
      "type": "function"
    },
    {
      "inputs": [],
      "name": "PAUSER_ROLE",
      "outputs": [
        {
          "internalType": "bytes32",
          "name": "",
          "type": "bytes32"
        }
      ],
      "stateMutability": "view",
      "type": "function"
    },
    {
      "inputs": [
        {
          "internalType": "address",
          "name": "owner",
          "type": "address"
        },
        {
          "internalType": "address",
          "name": "spender",
          "type": "address"
        }
      ],
      "name": "allowance",
      "outputs": [
        {
          "internalType": "uint256",
          "name": "",
          "type": "uint256"
        }
      ],
      "stateMutability": "view",
      "type": "function"
    },
    {
      "inputs": [
        {
          "internalType": "address",
          "name": "spender",
          "type": "address"
        },
        {
          "internalType": "uint256",
          "name": "amount",
          "type": "uint256"
        }
      ],
      "name": "approve",
      "outputs": [
        {
          "internalType": "bool",
          "name": "",
          "type": "bool"
        }
      ],
      "stateMutability": "nonpayable",
      "type": "function"
    },
    {
      "inputs": [
        {
          "internalType": "uint256",
          "name": "",
          "type": "uint256"
        }
      ],
      "name": "assets",
      "outputs": [
        {
          "internalType": "address",
          "name": "nftContract",
          "type": "address"
        },
        {
          "internalType": "uint256",
          "name": "nftID",
          "type": "uint256"
        },
        {
          "internalType": "enum OmniRecycle.StatusNFT",
          "name": "status",
          "type": "uint8"
        }
      ],
      "stateMutability": "view",
      "type": "function"
    },
    {
      "inputs": [
        {
          "internalType": "address",
          "name": "account",
          "type": "address"
        }
      ],
      "name": "balanceOf",
      "outputs": [
        {
          "internalType": "uint256",
          "name": "",
          "type": "uint256"
        }
      ],
      "stateMutability": "view",
      "type": "function"
    },
    {
      "inputs": [
        {
          "internalType": "uint256",
          "name": "amount",
          "type": "uint256"
        }
      ],
      "name": "burn",
      "outputs": [],
      "stateMutability": "nonpayable",
      "type": "function"
    },
    {
      "inputs": [
        {
          "internalType": "address",
          "name": "account",
          "type": "address"
        },
        {
          "internalType": "uint256",
          "name": "amount",
          "type": "uint256"
        }
      ],
      "name": "burnFrom",
      "outputs": [],
      "stateMutability": "nonpayable",
      "type": "function"
    },
    {
      "inputs": [],
      "name": "cdfInfo",
      "outputs": [
        {
          "internalType": "bytes32",
          "name": "imageHash",
          "type": "bytes32"
        },
        {
          "internalType": "string",
          "name": "ID",
          "type": "string"
        },
        {
          "internalType": "uint256",
          "name": "expeditionDate",
          "type": "uint256"
        }
      ],
      "stateMutability": "view",
      "type": "function"
    },
    {
      "inputs": [],
      "name": "coletador",
      "outputs": [
        {
          "internalType": "address",
          "name": "",
          "type": "address"
        }
      ],
      "stateMutability": "view",
      "type": "function"
    },
    {
      "inputs": [],
      "name": "decimals",
      "outputs": [
        {
          "internalType": "uint8",
          "name": "",
          "type": "uint8"
        }
      ],
      "stateMutability": "view",
      "type": "function"
    },
    {
      "inputs": [
        {
          "internalType": "address",
          "name": "spender",
          "type": "address"
        },
        {
          "internalType": "uint256",
          "name": "subtractedValue",
          "type": "uint256"
        }
      ],
      "name": "decreaseAllowance",
      "outputs": [
        {
          "internalType": "bool",
          "name": "",
          "type": "bool"
        }
      ],
      "stateMutability": "nonpayable",
      "type": "function"
    },
    {
      "inputs": [
        {
          "internalType": "bytes32",
          "name": "role",
          "type": "bytes32"
        }
      ],
      "name": "getRoleAdmin",
      "outputs": [
        {
          "internalType": "bytes32",
          "name": "",
          "type": "bytes32"
        }
      ],
      "stateMutability": "view",
      "type": "function"
    },
    {
      "inputs": [],
      "name": "getTotalAssets",
      "outputs": [
        {
          "internalType": "uint256",
          "name": "",
          "type": "uint256"
        }
      ],
      "stateMutability": "view",
      "type": "function"
    },
    {
      "inputs": [],
      "name": "govCategory",
      "outputs": [
        {
          "internalType": "string",
          "name": "",
          "type": "string"
        }
      ],
      "stateMutability": "view",
      "type": "function"
    },
    {
      "inputs": [
        {
          "internalType": "bytes32",
          "name": "role",
          "type": "bytes32"
        },
        {
          "internalType": "address",
          "name": "account",
          "type": "address"
        }
      ],
      "name": "grantRole",
      "outputs": [],
      "stateMutability": "nonpayable",
      "type": "function"
    },
    {
      "inputs": [
        {
          "internalType": "bytes32",
          "name": "role",
          "type": "bytes32"
        },
        {
          "internalType": "address",
          "name": "account",
          "type": "address"
        }
      ],
      "name": "hasRole",
      "outputs": [
        {
          "internalType": "bool",
          "name": "",
          "type": "bool"
        }
      ],
      "stateMutability": "view",
      "type": "function"
    },
    {
      "inputs": [
        {
          "internalType": "address",
          "name": "spender",
          "type": "address"
        },
        {
          "internalType": "uint256",
          "name": "addedValue",
          "type": "uint256"
        }
      ],
      "name": "increaseAllowance",
      "outputs": [
        {
          "internalType": "bool",
          "name": "",
          "type": "bool"
        }
      ],
      "stateMutability": "nonpayable",
      "type": "function"
    },
    {
      "inputs": [],
      "name": "mtrInfo",
      "outputs": [
        {
          "internalType": "bytes32",
          "name": "imageHash",
          "type": "bytes32"
        },
        {
          "internalType": "string",
          "name": "ID",
          "type": "string"
        },
        {
          "internalType": "uint256",
          "name": "expeditionDate",
          "type": "uint256"
        }
      ],
      "stateMutability": "view",
      "type": "function"
    },
    {
      "inputs": [],
      "name": "name",
      "outputs": [
        {
          "internalType": "string",
          "name": "",
          "type": "string"
        }
      ],
      "stateMutability": "view",
      "type": "function"
    },
    {
      "inputs": [],
      "name": "nfeInfo",
      "outputs": [
        {
          "internalType": "bytes32",
          "name": "imageHash",
          "type": "bytes32"
        },
        {
          "internalType": "string",
          "name": "ID",
          "type": "string"
        },
        {
          "internalType": "uint256",
          "name": "expeditionDate",
          "type": "uint256"
        }
      ],
      "stateMutability": "view",
      "type": "function"
    },
    {
      "inputs": [
        {
          "internalType": "address",
          "name": "owner",
          "type": "address"
        }
      ],
      "name": "nonces",
      "outputs": [
        {
          "internalType": "uint256",
          "name": "",
          "type": "uint256"
        }
      ],
      "stateMutability": "view",
      "type": "function"
    },
    {
      "inputs": [],
      "name": "pause",
      "outputs": [],
      "stateMutability": "nonpayable",
      "type": "function"
    },
    {
      "inputs": [],
      "name": "paused",
      "outputs": [
        {
          "internalType": "bool",
          "name": "",
          "type": "bool"
        }
      ],
      "stateMutability": "view",
      "type": "function"
    },
    {
      "inputs": [
        {
          "internalType": "address",
          "name": "owner",
          "type": "address"
        },
        {
          "internalType": "address",
          "name": "spender",
          "type": "address"
        },
        {
          "internalType": "uint256",
          "name": "value",
          "type": "uint256"
        },
        {
          "internalType": "uint256",
          "name": "deadline",
          "type": "uint256"
        },
        {
          "internalType": "uint8",
          "name": "v",
          "type": "uint8"
        },
        {
          "internalType": "bytes32",
          "name": "r",
          "type": "bytes32"
        },
        {
          "internalType": "bytes32",
          "name": "s",
          "type": "bytes32"
        }
      ],
      "name": "permit",
      "outputs": [],
      "stateMutability": "nonpayable",
      "type": "function"
    },
    {
      "inputs": [],
      "name": "recicladora",
      "outputs": [
        {
          "internalType": "address",
          "name": "",
          "type": "address"
        }
      ],
      "stateMutability": "view",
      "type": "function"
    },
    {
      "inputs": [],
      "name": "recycledAmount",
      "outputs": [
        {
          "internalType": "uint256",
          "name": "",
          "type": "uint256"
        }
      ],
      "stateMutability": "view",
      "type": "function"
    },
    {
      "inputs": [
        {
          "internalType": "address",
          "name": "_nftContract",
          "type": "address"
        },
        {
          "internalType": "uint256",
          "name": "_id",
          "type": "uint256"
        }
      ],
      "name": "registerNFTAsset",
      "outputs": [],
      "stateMutability": "nonpayable",
      "type": "function"
    },
    {
      "inputs": [
        {
          "internalType": "bytes32",
          "name": "role",
          "type": "bytes32"
        },
        {
          "internalType": "address",
          "name": "account",
          "type": "address"
        }
      ],
      "name": "renounceRole",
      "outputs": [],
      "stateMutability": "nonpayable",
      "type": "function"
    },
    {
      "inputs": [
        {
          "internalType": "bytes32",
          "name": "role",
          "type": "bytes32"
        },
        {
          "internalType": "address",
          "name": "account",
          "type": "address"
        }
      ],
      "name": "revokeRole",
      "outputs": [],
      "stateMutability": "nonpayable",
      "type": "function"
    },
    {
      "inputs": [
        {
          "internalType": "bytes32",
          "name": "_imageHash",
          "type": "bytes32"
        },
        {
          "internalType": "string",
          "name": "_ID",
          "type": "string"
        },
        {
          "internalType": "uint256",
          "name": "_expeditionDate",
          "type": "uint256"
        },
        {
          "internalType": "uint256",
          "name": "_recycledAmount",
          "type": "uint256"
        },
        {
          "internalType": "uint256[]",
          "name": "recycledItems",
          "type": "uint256[]"
        },
        {
          "internalType": "uint256[]",
          "name": "reusableItems",
          "type": "uint256[]"
        }
      ],
      "name": "setCDF",
      "outputs": [],
      "stateMutability": "nonpayable",
      "type": "function"
    },
    {
      "inputs": [
        {
          "internalType": "bytes32",
          "name": "_imageHash",
          "type": "bytes32"
        },
        {
          "internalType": "string",
          "name": "_ID",
          "type": "string"
        },
        {
          "internalType": "uint256",
          "name": "_expeditionDate",
          "type": "uint256"
        }
      ],
      "name": "setMTR",
      "outputs": [],
      "stateMutability": "nonpayable",
      "type": "function"
    },
    {
      "inputs": [
        {
          "internalType": "bytes32",
          "name": "_imageHash",
          "type": "bytes32"
        },
        {
          "internalType": "string",
          "name": "_ID",
          "type": "string"
        },
        {
          "internalType": "uint256",
          "name": "_expeditionDate",
          "type": "uint256"
        },
        {
          "internalType": "uint256",
          "name": "_recycledAmount",
          "type": "uint256"
        },
        {
          "internalType": "uint256[]",
          "name": "recycledItems",
          "type": "uint256[]"
        },
        {
          "internalType": "uint256[]",
          "name": "reusableItems",
          "type": "uint256[]"
        }
      ],
      "name": "setNFE",
      "outputs": [],
      "stateMutability": "nonpayable",
      "type": "function"
    },
    {
      "inputs": [
        {
          "internalType": "bytes4",
          "name": "interfaceId",
          "type": "bytes4"
        }
      ],
      "name": "supportsInterface",
      "outputs": [
        {
          "internalType": "bool",
          "name": "",
          "type": "bool"
        }
      ],
      "stateMutability": "view",
      "type": "function"
    },
    {
      "inputs": [],
      "name": "symbol",
      "outputs": [
        {
          "internalType": "string",
          "name": "",
          "type": "string"
        }
      ],
      "stateMutability": "view",
      "type": "function"
    },
    {
      "inputs": [],
      "name": "totalSupply",
      "outputs": [
        {
          "internalType": "uint256",
          "name": "",
          "type": "uint256"
        }
      ],
      "stateMutability": "view",
      "type": "function"
    },
    {
      "inputs": [
        {
          "internalType": "address",
          "name": "to",
          "type": "address"
        },
        {
          "internalType": "uint256",
          "name": "amount",
          "type": "uint256"
        }
      ],
      "name": "transfer",
      "outputs": [
        {
          "internalType": "bool",
          "name": "",
          "type": "bool"
        }
      ],
      "stateMutability": "nonpayable",
      "type": "function"
    },
    {
      "inputs": [
        {
          "internalType": "address",
          "name": "from",
          "type": "address"
        },
        {
          "internalType": "address",
          "name": "to",
          "type": "address"
        },
        {
          "internalType": "uint256",
          "name": "amount",
          "type": "uint256"
        }
      ],
      "name": "transferFrom",
      "outputs": [
        {
          "internalType": "bool",
          "name": "",
          "type": "bool"
        }
      ],
      "stateMutability": "nonpayable",
      "type": "function"
    },
    {
      "inputs": [],
      "name": "unpause",
      "outputs": [],
      "stateMutability": "nonpayable",
      "type": "function"
    }
  ],
  "bytecode": {
    "object": "0x6101406040523480156200001257600080fd5b5060405162002b8938038062002b898339810160408190526200003591620003b2565b6040518060400160405280600b81526020016a4f6d6e6952656379636c6560a81b81525080604051806040016040528060018152602001603160f81b8152506040518060400160405280600b81526020016a4f6d6e6952656379636c6560a81b815250604051806040016040528060048152602001634f4d524360e01b8152508160039080519060200190620000cd929190620002d9565b508051620000e3906004906020840190620002d9565b50506005805460ff1916905550815160209283012081519183019190912060e08290526101008190524660a0818152604080517f8b73c3c69bb8fe3d512ecc4cf759cc79239f7b179b0ffacaa9a75d522b39400f818801819052818301969096526060810194909452608080850193909352308483018190528151808603909301835260c09485019091528151919095012090529190915261012052506200018d60003362000234565b620001b97f65d7a28e3265b37a6474929f336521b332c1681b933f6cb9f3376673440d862a3362000234565b620001e57f9f2df0fed2c77648de5860a4cc508cd0818c85b8b8a1ab4ceeef8d981c8956a63362000234565b601380546001600160a01b038086166001600160a01b031992831617909255601480549285169290911691909117905580516200022a906015906020840190620002d9565b50505050620004f2565b60008281526006602090815260408083206001600160a01b038516845290915290205460ff16620002d55760008281526006602090815260408083206001600160a01b03851684529091529020805460ff19166001179055620002943390565b6001600160a01b0316816001600160a01b0316837f2f8788117e7eff1d82e926ec794901d17c78024a50270940304540a733656f0d60405160405180910390a45b5050565b828054620002e790620004b6565b90600052602060002090601f0160209004810192826200030b576000855562000356565b82601f106200032657805160ff191683800117855562000356565b8280016001018555821562000356579182015b828111156200035657825182559160200191906001019062000339565b506200036492915062000368565b5090565b5b8082111562000364576000815560010162000369565b80516001600160a01b03811681146200039757600080fd5b919050565b634e487b7160e01b600052604160045260246000fd5b600080600060608486031215620003c857600080fd5b620003d3846200037f565b92506020620003e48186016200037f565b60408601519093506001600160401b03808211156200040257600080fd5b818701915087601f8301126200041757600080fd5b8151818111156200042c576200042c6200039c565b604051601f8201601f19908116603f011681019083821181831017156200045757620004576200039c565b816040528281528a868487010111156200047057600080fd5b600093505b8284101562000494578484018601518185018701529285019262000475565b82841115620004a65760008684830101525b8096505050505050509250925092565b600181811c90821680620004cb57607f821691505b602082108103620004ec57634e487b7160e01b600052602260045260246000fd5b50919050565b60805160a05160c05160e05161010051610120516126476200054260003960006116a2015260006116f1015260006116cc015260006116250152600061164f0152600061167901526126476000f3fe608060405234801561001057600080fd5b50600436106102535760003560e01c80636ed1fae911610146578063a20a87f5116100c3578063d505accf11610087578063d505accf146104e1578063d5391393146104f4578063d547741f14610509578063dd62ed3e1461051c578063e63ab1e91461052f578063f90b0e5f1461055657600080fd5b8063a20a87f514610466578063a217fddf14610491578063a457c2d714610499578063a9059cbb146104ac578063cf35bdd0146104bf57600080fd5b8063894c76791161010a578063894c76791461042757806391d148541461043057806395d89b41146104435780639c03b1bd1461044b578063a0d4aee01461045357600080fd5b80636ed1fae9146103c857806370a08231146103d057806379cc6790146103f95780637ecebe001461040c5780638456cb591461041f57600080fd5b8063313ce567116101d45780633f4ba83a116101985780633f4ba83a1461038757806342966c681461038f5780635c975abb146103a25780636c9ac9eb146103ad5780636e07302b146103c057600080fd5b8063313ce567146103375780633644e5151461034657806336568abe1461034e57806339509351146103615780633e9793751461037457600080fd5b80630fb54cde1161021b5780630fb54cde146102c757806318160ddd146102dc57806323b872dd146102ee578063248a9ca3146103015780632f2ff15d1461032457600080fd5b806301ffc9a714610258578063030059911461028057806306fdde0314610297578063095ea7b3146102ac5780630f51c83d146102bf575b600080fd5b61026b610266366004611ff4565b610569565b60405190151581526020015b60405180910390f35b6102886105a0565b60405161027793929190612076565b61029f61063d565b604051610277919061209f565b61026b6102ba3660046120ce565b6106cf565b6102886106e7565b6102da6102d536600461222f565b6106fb565b005b6002545b604051908152602001610277565b61026b6102fc3660046122d3565b61091b565b6102e061030f36600461230f565b60009081526006602052604090206001015490565b6102da610332366004612328565b61093f565b60405160128152602001610277565b6102e0610969565b6102da61035c366004612328565b610978565b61026b61036f3660046120ce565b6109f6565b6102da6103823660046120ce565b610a18565b6102da610b1c565b6102da61039d36600461230f565b610b51565b60055460ff1661026b565b6102da6103bb366004612354565b610b5b565b6012546102e0565b61029f610bbe565b6102e06103de3660046123a4565b6001600160a01b031660009081526020819052604090205490565b6102da6104073660046120ce565b610c4c565b6102e061041a3660046123a4565b610c61565b6102da610c7f565b6102e060165481565b61026b61043e366004612328565b610cb1565b61029f610cdc565b610288610ceb565b6102da61046136600461222f565b610cff565b601354610479906001600160a01b031681565b6040516001600160a01b039091168152602001610277565b6102e0600081565b61026b6104a73660046120ce565b610ef3565b61026b6104ba3660046120ce565b610f6e565b6104d26104cd36600461230f565b610f7c565b604051610277939291906123d5565b6102da6104ef366004612418565b610fbc565b6102e06000805160206125f283398151915281565b6102da610517366004612328565b611120565b6102e061052a36600461248b565b611145565b6102e07f65d7a28e3265b37a6474929f336521b332c1681b933f6cb9f3376673440d862a81565b601454610479906001600160a01b031681565b60006001600160e01b03198216637965db0b60e01b148061059a57506301ffc9a760e01b6001600160e01b03198316145b92915050565b600f8054601080549192916105b4906124b5565b80601f01602080910402602001604051908101604052809291908181526020018280546105e0906124b5565b801561062d5780601f106106025761010080835404028352916020019161062d565b820191906000526020600020905b81548152906001019060200180831161061057829003601f168201915b5050505050908060020154905083565b60606003805461064c906124b5565b80601f0160208091040260200160405190810160405280929190818152602001828054610678906124b5565b80156106c55780601f1061069a576101008083540402835291602001916106c5565b820191906000526020600020905b8154815290600101906020018083116106a857829003601f168201915b5050505050905090565b6000336106dd818585611170565b5060019392505050565b600c8054600d80549192916105b4906124b5565b6000805160206125f283398151915261071381611294565b8251601254101561076b5760405162461bcd60e51b815260206004820181905260248201527f696e76616c6964206e756d626572206f662072656379636c6564206974656d7360448201526064015b60405180910390fd5b60005b6012548110156107ea576001601285838151811061078e5761078e6124e9565b6020026020010151815481106107a6576107a66124e9565b60009182526020909120600260039092020101805460ff191660018360048111156107d3576107d36123bf565b0217905550806107e281612515565b91505061076e565b508151601254101561083e5760405162461bcd60e51b815260206004820181905260248201527f696e76616c6964206e756d626572206f66207265757361626c65206974656d736044820152606401610762565b60005b6012548110156108bd5760036012848381518110610861576108616124e9565b602002602001015181548110610879576108796124e9565b60009182526020909120600260039092020101805460ff191660018360048111156108a6576108a66123bf565b0217905550806108b581612515565b915050610841565b50604080516060810182528881526020808201899052918101879052600f8981558851919283926108f491601091908c0190611f5b565b50604091909101516002909101556016859055610911308661129e565b5050505050505050565b600033610929858285611369565b6109348585856113e3565b506001949350505050565b60008281526006602052604090206001015461095a81611294565b6109648383611592565b505050565b6000610973611618565b905090565b6001600160a01b03811633146109e85760405162461bcd60e51b815260206004820152602f60248201527f416363657373436f6e74726f6c3a2063616e206f6e6c792072656e6f756e636560448201526e103937b632b9903337b91039b2b63360891b6064820152608401610762565b6109f2828261173f565b5050565b6000336106dd818585610a098383611145565b610a13919061252e565b611170565b6000805160206125f2833981519152610a3081611294565b604080516060810182526001600160a01b03858116825260208201858152600093830184815260128054600180820183559190965284517fbb8a6a4669ba250d26cd7a459eca9d215f8307e33aebe50379bc5a3617ec3444600390970296870180546001600160a01b0319169190951617845591517fbb8a6a4669ba250d26cd7a459eca9d215f8307e33aebe50379bc5a3617ec3445860155517fbb8a6a4669ba250d26cd7a459eca9d215f8307e33aebe50379bc5a3617ec3446909401805493948594909260ff1990911690836004811115610b0f57610b0f6123bf565b0217905550505050505050565b7f65d7a28e3265b37a6474929f336521b332c1681b933f6cb9f3376673440d862a610b4681611294565b610b4e6117a6565b50565b610b4e33826117f8565b6000805160206125f2833981519152610b7381611294565b6040805160608101825285815260208082018690529181018490526009868155855191928392610ba991600a9190890190611f5b565b50604082015181600201559050505050505050565b60158054610bcb906124b5565b80601f0160208091040260200160405190810160405280929190818152602001828054610bf7906124b5565b8015610c445780601f10610c1957610100808354040283529160200191610c44565b820191906000526020600020905b815481529060010190602001808311610c2757829003601f168201915b505050505081565b610c57823383611369565b6109f282826117f8565b6001600160a01b03811660009081526007602052604081205461059a565b7f65d7a28e3265b37a6474929f336521b332c1681b933f6cb9f3376673440d862a610ca981611294565b610b4e611936565b60009182526006602090815260408084206001600160a01b0393909316845291905290205460ff1690565b60606004805461064c906124b5565b60098054600a80549192916105b4906124b5565b6000805160206125f2833981519152610d1781611294565b82516012541015610d6a5760405162461bcd60e51b815260206004820181905260248201527f696e76616c6964206e756d626572206f662072656379636c6564206974656d736044820152606401610762565b60005b601254811015610de95760016012858381518110610d8d57610d8d6124e9565b602002602001015181548110610da557610da56124e9565b60009182526020909120600260039092020101805460ff19166001836004811115610dd257610dd26123bf565b021790555080610de181612515565b915050610d6d565b5081516012541015610e3d5760405162461bcd60e51b815260206004820181905260248201527f696e76616c6964206e756d626572206f66207265757361626c65206974656d736044820152606401610762565b60005b601254811015610ebc5760036012848381518110610e6057610e606124e9565b602002602001015181548110610e7857610e786124e9565b60009182526020909120600260039092020101805460ff19166001836004811115610ea557610ea56123bf565b021790555080610eb481612515565b915050610e40565b50604080516060810182528881526020808201899052918101879052600c8981558851919283926108f491600d91908c0190611f5b565b60003381610f018286611145565b905083811015610f615760405162461bcd60e51b815260206004820152602560248201527f45524332303a2064656372656173656420616c6c6f77616e63652062656c6f77604482015264207a65726f60d81b6064820152608401610762565b6109348286868403611170565b6000336106dd8185856113e3565b60128181548110610f8c57600080fd5b60009182526020909120600390910201805460018201546002909201546001600160a01b03909116925060ff1683565b8342111561100c5760405162461bcd60e51b815260206004820152601d60248201527f45524332305065726d69743a206578706972656420646561646c696e650000006044820152606401610762565b60007f6e71edae12b1b97f4d1f60370fef10105fa2faae0126114a169c64845d6126c988888861103b8c611973565b6040805160208101969096526001600160a01b0394851690860152929091166060840152608083015260a082015260c0810186905260e00160405160208183030381529060405280519060200120905060006110968261199b565b905060006110a6828787876119e9565b9050896001600160a01b0316816001600160a01b0316146111095760405162461bcd60e51b815260206004820152601e60248201527f45524332305065726d69743a20696e76616c6964207369676e617475726500006044820152606401610762565b6111148a8a8a611170565b50505050505050505050565b60008281526006602052604090206001015461113b81611294565b610964838361173f565b6001600160a01b03918216600090815260016020908152604080832093909416825291909152205490565b6001600160a01b0383166111d25760405162461bcd60e51b8152602060048201526024808201527f45524332303a20617070726f76652066726f6d20746865207a65726f206164646044820152637265737360e01b6064820152608401610762565b6001600160a01b0382166112335760405162461bcd60e51b815260206004820152602260248201527f45524332303a20617070726f766520746f20746865207a65726f206164647265604482015261737360f01b6064820152608401610762565b6001600160a01b0383811660008181526001602090815260408083209487168084529482529182902085905590518481527f8c5be1e5ebec7d5bd14f71427d1e84f3dd0314c0f7b2291e5b200ac8c7c3b925910160405180910390a3505050565b610b4e8133611a11565b6001600160a01b0382166112f45760405162461bcd60e51b815260206004820152601f60248201527f45524332303a206d696e7420746f20746865207a65726f2061646472657373006044820152606401610762565b61130060008383611a6a565b8060026000828254611312919061252e565b90915550506001600160a01b038216600081815260208181526040808320805486019055518481527fddf252ad1be2c89b69c2b068fc378daa952ba7f163c4a11628f55a4df523b3ef910160405180910390a35050565b60006113758484611145565b905060001981146113dd57818110156113d05760405162461bcd60e51b815260206004820152601d60248201527f45524332303a20696e73756666696369656e7420616c6c6f77616e63650000006044820152606401610762565b6113dd8484848403611170565b50505050565b6001600160a01b0383166114475760405162461bcd60e51b815260206004820152602560248201527f45524332303a207472616e736665722066726f6d20746865207a65726f206164604482015264647265737360d81b6064820152608401610762565b6001600160a01b0382166114a95760405162461bcd60e51b815260206004820152602360248201527f45524332303a207472616e7366657220746f20746865207a65726f206164647260448201526265737360e81b6064820152608401610762565b6114b4838383611a6a565b6001600160a01b0383166000908152602081905260409020548181101561152c5760405162461bcd60e51b815260206004820152602660248201527f45524332303a207472616e7366657220616d6f756e7420657863656564732062604482015265616c616e636560d01b6064820152608401610762565b6001600160a01b03848116600081815260208181526040808320878703905593871680835291849020805487019055925185815290927fddf252ad1be2c89b69c2b068fc378daa952ba7f163c4a11628f55a4df523b3ef910160405180910390a36113dd565b61159c8282610cb1565b6109f25760008281526006602090815260408083206001600160a01b03851684529091529020805460ff191660011790556115d43390565b6001600160a01b0316816001600160a01b0316837f2f8788117e7eff1d82e926ec794901d17c78024a50270940304540a733656f0d60405160405180910390a45050565b6000306001600160a01b037f00000000000000000000000000000000000000000000000000000000000000001614801561167157507f000000000000000000000000000000000000000000000000000000000000000046145b1561169b57507f000000000000000000000000000000000000000000000000000000000000000090565b50604080517f00000000000000000000000000000000000000000000000000000000000000006020808301919091527f0000000000000000000000000000000000000000000000000000000000000000828401527f000000000000000000000000000000000000000000000000000000000000000060608301524660808301523060a0808401919091528351808403909101815260c0909201909252805191012090565b6117498282610cb1565b156109f25760008281526006602090815260408083206001600160a01b0385168085529252808320805460ff1916905551339285917ff6391f5c32d9c69d2a47ea670b442974b53935d1edc7fd64eb21e047a839171b9190a45050565b6117ae611a72565b6005805460ff191690557f5db9ee0a495bf2e6ff9c91a7834c1ba4fdd244a5e8aa4e537bd38aeae4b073aa335b6040516001600160a01b03909116815260200160405180910390a1565b6001600160a01b0382166118585760405162461bcd60e51b815260206004820152602160248201527f45524332303a206275726e2066726f6d20746865207a65726f206164647265736044820152607360f81b6064820152608401610762565b61186482600083611a6a565b6001600160a01b038216600090815260208190526040902054818110156118d85760405162461bcd60e51b815260206004820152602260248201527f45524332303a206275726e20616d6f756e7420657863656564732062616c616e604482015261636560f01b6064820152608401610762565b6001600160a01b0383166000818152602081815260408083208686039055600280548790039055518581529192917fddf252ad1be2c89b69c2b068fc378daa952ba7f163c4a11628f55a4df523b3ef910160405180910390a3505050565b61193e611abd565b6005805460ff191660011790557f62e78cea01bee320cd4e420270b5ea74000d11b0c9f74754ebdbfc544b05a2586117db3390565b6001600160a01b03811660009081526007602052604090208054600181018255905b50919050565b600061059a6119a8611618565b8360405161190160f01b6020820152602281018390526042810182905260009060620160405160208183030381529060405280519060200120905092915050565b60008060006119fa87878787611b03565b91509150611a0781611bf0565b5095945050505050565b611a1b8282610cb1565b6109f257611a2881611da6565b611a33836020611db8565b604051602001611a44929190612546565b60408051601f198184030181529082905262461bcd60e51b82526107629160040161209f565b610964611abd565b60055460ff16611abb5760405162461bcd60e51b815260206004820152601460248201527314185d5cd8589b194e881b9bdd081c185d5cd95960621b6044820152606401610762565b565b60055460ff1615611abb5760405162461bcd60e51b815260206004820152601060248201526f14185d5cd8589b194e881c185d5cd95960821b6044820152606401610762565b6000807f7fffffffffffffffffffffffffffffff5d576e7357a4501ddfe92f46681b20a0831115611b3a5750600090506003611be7565b8460ff16601b14158015611b5257508460ff16601c14155b15611b635750600090506004611be7565b6040805160008082526020820180845289905260ff881692820192909252606081018690526080810185905260019060a0016020604051602081039080840390855afa158015611bb7573d6000803e3d6000fd5b5050604051601f1901519150506001600160a01b038116611be057600060019250925050611be7565b9150600090505b94509492505050565b6000816004811115611c0457611c046123bf565b03611c0c5750565b6001816004811115611c2057611c206123bf565b03611c6d5760405162461bcd60e51b815260206004820152601860248201527f45434453413a20696e76616c6964207369676e617475726500000000000000006044820152606401610762565b6002816004811115611c8157611c816123bf565b03611cce5760405162461bcd60e51b815260206004820152601f60248201527f45434453413a20696e76616c6964207369676e6174757265206c656e677468006044820152606401610762565b6003816004811115611ce257611ce26123bf565b03611d3a5760405162461bcd60e51b815260206004820152602260248201527f45434453413a20696e76616c6964207369676e6174757265202773272076616c604482015261756560f01b6064820152608401610762565b6004816004811115611d4e57611d4e6123bf565b03610b4e5760405162461bcd60e51b815260206004820152602260248201527f45434453413a20696e76616c6964207369676e6174757265202776272076616c604482015261756560f01b6064820152608401610762565b606061059a6001600160a01b03831660145b60606000611dc78360026125bb565b611dd290600261252e565b67ffffffffffffffff811115611dea57611dea6120f8565b6040519080825280601f01601f191660200182016040528015611e14576020820181803683370190505b509050600360fc1b81600081518110611e2f57611e2f6124e9565b60200101906001600160f81b031916908160001a905350600f60fb1b81600181518110611e5e57611e5e6124e9565b60200101906001600160f81b031916908160001a9053506000611e828460026125bb565b611e8d90600161252e565b90505b6001811115611f05576f181899199a1a9b1b9c1cb0b131b232b360811b85600f1660108110611ec157611ec16124e9565b1a60f81b828281518110611ed757611ed76124e9565b60200101906001600160f81b031916908160001a90535060049490941c93611efe816125da565b9050611e90565b508315611f545760405162461bcd60e51b815260206004820181905260248201527f537472696e67733a20686578206c656e67746820696e73756666696369656e746044820152606401610762565b9392505050565b828054611f67906124b5565b90600052602060002090601f016020900481019282611f895760008555611fcf565b82601f10611fa257805160ff1916838001178555611fcf565b82800160010185558215611fcf579182015b82811115611fcf578251825591602001919060010190611fb4565b50611fdb929150611fdf565b5090565b5b80821115611fdb5760008155600101611fe0565b60006020828403121561200657600080fd5b81356001600160e01b031981168114611f5457600080fd5b60005b83811015612039578181015183820152602001612021565b838111156113dd5750506000910152565b6000815180845261206281602086016020860161201e565b601f01601f19169290920160200192915050565b83815260606020820152600061208f606083018561204a565b9050826040830152949350505050565b602081526000611f54602083018461204a565b80356001600160a01b03811681146120c957600080fd5b919050565b600080604083850312156120e157600080fd5b6120ea836120b2565b946020939093013593505050565b634e487b7160e01b600052604160045260246000fd5b604051601f8201601f1916810167ffffffffffffffff81118282101715612137576121376120f8565b604052919050565b600082601f83011261215057600080fd5b813567ffffffffffffffff81111561216a5761216a6120f8565b61217d601f8201601f191660200161210e565b81815284602083860101111561219257600080fd5b816020850160208301376000918101602001919091529392505050565b600082601f8301126121c057600080fd5b8135602067ffffffffffffffff8211156121dc576121dc6120f8565b8160051b6121eb82820161210e565b928352848101820192828101908785111561220557600080fd5b83870192505b848310156122245782358252918301919083019061220b565b979650505050505050565b60008060008060008060c0878903121561224857600080fd5b86359550602087013567ffffffffffffffff8082111561226757600080fd5b6122738a838b0161213f565b96506040890135955060608901359450608089013591508082111561229757600080fd5b6122a38a838b016121af565b935060a08901359150808211156122b957600080fd5b506122c689828a016121af565b9150509295509295509295565b6000806000606084860312156122e857600080fd5b6122f1846120b2565b92506122ff602085016120b2565b9150604084013590509250925092565b60006020828403121561232157600080fd5b5035919050565b6000806040838503121561233b57600080fd5b8235915061234b602084016120b2565b90509250929050565b60008060006060848603121561236957600080fd5b83359250602084013567ffffffffffffffff81111561238757600080fd5b6123938682870161213f565b925050604084013590509250925092565b6000602082840312156123b657600080fd5b611f54826120b2565b634e487b7160e01b600052602160045260246000fd5b6001600160a01b038416815260208101839052606081016005831061240a57634e487b7160e01b600052602160045260246000fd5b826040830152949350505050565b600080600080600080600060e0888a03121561243357600080fd5b61243c886120b2565b965061244a602089016120b2565b95506040880135945060608801359350608088013560ff8116811461246e57600080fd5b9699959850939692959460a0840135945060c09093013592915050565b6000806040838503121561249e57600080fd5b6124a7836120b2565b915061234b602084016120b2565b600181811c908216806124c957607f821691505b60208210810361199557634e487b7160e01b600052602260045260246000fd5b634e487b7160e01b600052603260045260246000fd5b634e487b7160e01b600052601160045260246000fd5b600060018201612527576125276124ff565b5060010190565b60008219821115612541576125416124ff565b500190565b7f416363657373436f6e74726f6c3a206163636f756e742000000000000000000081526000835161257e81601785016020880161201e565b7001034b99036b4b9b9b4b733903937b6329607d1b60179184019182015283516125af81602884016020880161201e565b01602801949350505050565b60008160001904831182151516156125d5576125d56124ff565b500290565b6000816125e9576125e96124ff565b50600019019056fe9f2df0fed2c77648de5860a4cc508cd0818c85b8b8a1ab4ceeef8d981c8956a6a26469706673582212209b455f359af97bc2ed3392091dd448632d0b6aec5dca3594f225b3a1d502ad0e64736f6c634300080d0033",
    "linkReferences": {}
  },
  "methodIdentifiers": {
    "DEFAULT_ADMIN_ROLE()": "a217fddf",
    "DOMAIN_SEPARATOR()": "3644e515",
    "MINTER_ROLE()": "d5391393",
    "PAUSER_ROLE()": "e63ab1e9",
    "allowance(address,address)": "dd62ed3e",
    "approve(address,uint256)": "095ea7b3",
    "assets(uint256)": "cf35bdd0",
    "balanceOf(address)": "70a08231",
    "burn(uint256)": "42966c68",
    "burnFrom(address,uint256)": "79cc6790",
    "cdfInfo()": "0f51c83d",
    "coletador()": "a20a87f5",
    "decimals()": "313ce567",
    "decreaseAllowance(address,uint256)": "a457c2d7",
    "getRoleAdmin(bytes32)": "248a9ca3",
    "getTotalAssets()": "6e07302b",
    "govCategory()": "6ed1fae9",
    "grantRole(bytes32,address)": "2f2ff15d",
    "hasRole(bytes32,address)": "91d14854",
    "increaseAllowance(address,uint256)": "39509351",
    "mtrInfo()": "9c03b1bd",
    "name()": "06fdde03",
    "nfeInfo()": "03005991",
    "nonces(address)": "7ecebe00",
    "pause()": "8456cb59",
    "paused()": "5c975abb",
    "permit(address,address,uint256,uint256,uint8,bytes32,bytes32)": "d505accf",
    "recicladora()": "f90b0e5f",
    "recycledAmount()": "894c7679",
    "registerNFTAsset(address,uint256)": "3e979375",
    "renounceRole(bytes32,address)": "36568abe",
    "revokeRole(bytes32,address)": "d547741f",
    "setCDF(bytes32,string,uint256,uint256,uint256[],uint256[])": "a0d4aee0",
    "setMTR(bytes32,string,uint256)": "6c9ac9eb",
    "setNFE(bytes32,string,uint256,uint256,uint256[],uint256[])": "0fb54cde",
    "supportsInterface(bytes4)": "01ffc9a7",
    "symbol()": "95d89b41",
    "totalSupply()": "18160ddd",
    "transfer(address,uint256)": "a9059cbb",
    "transferFrom(address,address,uint256)": "23b872dd",
    "unpause()": "3f4ba83a"
  },
  "id": 22
}