{
  "abi": [
    {
      "inputs": [
        {
          "internalType": "string",
          "name": "uri_",
          "type": "string"
        }
      ],
      "stateMutability": "nonpayable",
      "type": "constructor"
    },
    {
      "anonymous": false,
      "inputs": [
        {
          "indexed": true,
          "internalType": "address",
          "name": "account",
          "type": "address"
        },
        {
          "indexed": true,
          "internalType": "address",
          "name": "operator",
          "type": "address"
        },
        {
          "indexed": false,
          "internalType": "bool",
          "name": "approved",
          "type": "bool"
        }
      ],
      "name": "ApprovalForAll",
      "type": "event"
    },
    {
      "anonymous": false,
      "inputs": [
        {
          "indexed": true,
          "internalType": "address",
          "name": "operator",
          "type": "address"
        },
        {
          "indexed": true,
          "internalType": "address",
          "name": "from",
          "type": "address"
        },
        {
          "indexed": true,
          "internalType": "address",
          "name": "to",
          "type": "address"
        },
        {
          "indexed": false,
          "internalType": "uint256[]",
          "name": "ids",
          "type": "uint256[]"
        },
        {
          "indexed": false,
          "internalType": "uint256[]",
          "name": "values",
          "type": "uint256[]"
        }
      ],
      "name": "TransferBatch",
      "type": "event"
    },
    {
      "anonymous": false,
      "inputs": [
        {
          "indexed": true,
          "internalType": "address",
          "name": "operator",
          "type": "address"
        },
        {
          "indexed": true,
          "internalType": "address",
          "name": "from",
          "type": "address"
        },
        {
          "indexed": true,
          "internalType": "address",
          "name": "to",
          "type": "address"
        },
        {
          "indexed": false,
          "internalType": "uint256",
          "name": "id",
          "type": "uint256"
        },
        {
          "indexed": false,
          "internalType": "uint256",
          "name": "value",
          "type": "uint256"
        }
      ],
      "name": "TransferSingle",
      "type": "event"
    },
    {
      "anonymous": false,
      "inputs": [
        {
          "indexed": false,
          "internalType": "string",
          "name": "value",
          "type": "string"
        },
        {
          "indexed": true,
          "internalType": "uint256",
          "name": "id",
          "type": "uint256"
        }
      ],
      "name": "URI",
      "type": "event"
    },
    {
      "inputs": [],
      "name": "_uri",
      "outputs": [
        {
          "internalType": "string",
          "name": "",
          "type": "string"
        }
      ],
      "stateMutability": "view",
      "type": "function"
    },
    {
      "inputs": [
        {
          "internalType": "address",
          "name": "account",
          "type": "address"
        },
        {
          "internalType": "uint256",
          "name": "id",
          "type": "uint256"
        }
      ],
      "name": "balanceOf",
      "outputs": [
        {
          "internalType": "uint256",
          "name": "",
          "type": "uint256"
        }
      ],
      "stateMutability": "view",
      "type": "function"
    },
    {
      "inputs": [
        {
          "internalType": "address[]",
          "name": "accounts",
          "type": "address[]"
        },
        {
          "internalType": "uint256[]",
          "name": "ids",
          "type": "uint256[]"
        }
      ],
      "name": "balanceOfBatch",
      "outputs": [
        {
          "internalType": "uint256[]",
          "name": "",
          "type": "uint256[]"
        }
      ],
      "stateMutability": "view",
      "type": "function"
    },
    {
      "inputs": [
        {
          "internalType": "address",
          "name": "account",
          "type": "address"
        },
        {
          "internalType": "address",
          "name": "operator",
          "type": "address"
        }
      ],
      "name": "isApprovedForAll",
      "outputs": [
        {
          "internalType": "bool",
          "name": "",
          "type": "bool"
        }
      ],
      "stateMutability": "view",
      "type": "function"
    },
    {
      "inputs": [
        {
          "internalType": "address",
          "name": "from",
          "type": "address"
        },
        {
          "internalType": "address",
          "name": "to",
          "type": "address"
        },
        {
          "internalType": "uint256[]",
          "name": "ids",
          "type": "uint256[]"
        },
        {
          "internalType": "uint256[]",
          "name": "amounts",
          "type": "uint256[]"
        },
        {
          "internalType": "bytes",
          "name": "data",
          "type": "bytes"
        }
      ],
      "name": "safeBatchTransferFrom",
      "outputs": [],
      "stateMutability": "nonpayable",
      "type": "function"
    },
    {
      "inputs": [
        {
          "internalType": "address",
          "name": "from",
          "type": "address"
        },
        {
          "internalType": "address",
          "name": "to",
          "type": "address"
        },
        {
          "internalType": "uint256",
          "name": "id",
          "type": "uint256"
        },
        {
          "internalType": "uint256",
          "name": "amount",
          "type": "uint256"
        },
        {
          "internalType": "bytes",
          "name": "data",
          "type": "bytes"
        }
      ],
      "name": "safeTransferFrom",
      "outputs": [],
      "stateMutability": "nonpayable",
      "type": "function"
    },
    {
      "inputs": [
        {
          "internalType": "address",
          "name": "operator",
          "type": "address"
        },
        {
          "internalType": "bool",
          "name": "approved",
          "type": "bool"
        }
      ],
      "name": "setApprovalForAll",
      "outputs": [],
      "stateMutability": "nonpayable",
      "type": "function"
    },
    {
      "inputs": [
        {
          "internalType": "bytes4",
          "name": "interfaceId",
          "type": "bytes4"
        }
      ],
      "name": "supportsInterface",
      "outputs": [
        {
          "internalType": "bool",
          "name": "",
          "type": "bool"
        }
      ],
      "stateMutability": "view",
      "type": "function"
    },
    {
      "inputs": [
        {
          "internalType": "uint256",
          "name": "",
          "type": "uint256"
        }
      ],
      "name": "uri",
      "outputs": [
        {
          "internalType": "string",
          "name": "",
          "type": "string"
        }
      ],
      "stateMutability": "view",
      "type": "function"
    }
  ],
  "bytecode": {
    "object": "0x60806040523480156200001157600080fd5b506040516200166d3803806200166d83398101604081905262000034916200011b565b6200003f8162000046565b5062000233565b80516200005b9060029060208401906200005f565b5050565b8280546200006d90620001f7565b90600052602060002090601f016020900481019282620000915760008555620000dc565b82601f10620000ac57805160ff1916838001178555620000dc565b82800160010185558215620000dc579182015b82811115620000dc578251825591602001919060010190620000bf565b50620000ea929150620000ee565b5090565b5b80821115620000ea5760008155600101620000ef565b634e487b7160e01b600052604160045260246000fd5b600060208083850312156200012f57600080fd5b82516001600160401b03808211156200014757600080fd5b818501915085601f8301126200015c57600080fd5b81518181111562000171576200017162000105565b604051601f8201601f19908116603f011681019083821181831017156200019c576200019c62000105565b816040528281528886848701011115620001b557600080fd5b600093505b82841015620001d95784840186015181850187015292850192620001ba565b82841115620001eb5760008684830101525b98975050505050505050565b600181811c908216806200020c57607f821691505b6020821081036200022d57634e487b7160e01b600052602260045260246000fd5b50919050565b61142a80620002436000396000f3fe608060405234801561001057600080fd5b50600436106100925760003560e01c80632eb2c2d6116100665780632eb2c2d6146101085780634e1273f41461011d578063a22cb4651461013d578063e985e9c514610150578063f242432a1461018c57600080fd5b8062fdd58e1461009757806301ffc9a7146100bd5780630dccc9ad146100e05780630e89341c146100f5575b600080fd5b6100aa6100a5366004610be0565b61019f565b6040519081526020015b60405180910390f35b6100d06100cb366004610c23565b610235565b60405190151581526020016100b4565b6100e8610287565b6040516100b49190610c94565b6100e8610103366004610ca7565b610315565b61011b610116366004610e0c565b6103a9565b005b61013061012b366004610eb6565b6103f5565b6040516100b49190610fbc565b61011b61014b366004610fcf565b61051f565b6100d061015e36600461100b565b6001600160a01b03918216600090815260016020908152604080832093909416825291909152205460ff1690565b61011b61019a36600461103e565b61052e565b60006001600160a01b03831661020f5760405162461bcd60e51b815260206004820152602a60248201527f455243313135353a2061646472657373207a65726f206973206e6f742061207660448201526930b634b21037bbb732b960b11b60648201526084015b60405180910390fd5b506000908152602081815260408083206001600160a01b03949094168352929052205490565b60006001600160e01b03198216636cdb3d1360e11b148061026657506001600160e01b031982166303a24d0760e21b145b8061028157506301ffc9a760e01b6001600160e01b03198316145b92915050565b60028054610294906110a3565b80601f01602080910402602001604051908101604052809291908181526020018280546102c0906110a3565b801561030d5780601f106102e25761010080835404028352916020019161030d565b820191906000526020600020905b8154815290600101906020018083116102f057829003601f168201915b505050505081565b606060028054610324906110a3565b80601f0160208091040260200160405190810160405280929190818152602001828054610350906110a3565b801561039d5780601f106103725761010080835404028352916020019161039d565b820191906000526020600020905b81548152906001019060200180831161038057829003601f168201915b50505050509050919050565b6001600160a01b0385163314806103c557506103c5853361015e565b6103e15760405162461bcd60e51b8152600401610206906110dd565b6103ee8585858585610573565b5050505050565b6060815183511461045a5760405162461bcd60e51b815260206004820152602960248201527f455243313135353a206163636f756e747320616e6420696473206c656e677468604482015268040dad2e6dac2e8c6d60bb1b6064820152608401610206565b6000835167ffffffffffffffff81111561047657610476610cc0565b60405190808252806020026020018201604052801561049f578160200160208202803683370190505b50905060005b8451811015610517576104ea8582815181106104c3576104c361112c565b60200260200101518583815181106104dd576104dd61112c565b602002602001015161019f565b8282815181106104fc576104fc61112c565b602090810291909101015261051081611158565b90506104a5565b509392505050565b61052a338383610750565b5050565b6001600160a01b03851633148061054a575061054a853361015e565b6105665760405162461bcd60e51b8152600401610206906110dd565b6103ee8585858585610830565b81518351146105d55760405162461bcd60e51b815260206004820152602860248201527f455243313135353a2069647320616e6420616d6f756e7473206c656e677468206044820152670dad2e6dac2e8c6d60c31b6064820152608401610206565b6001600160a01b0384166105fb5760405162461bcd60e51b815260040161020690611171565b3360005b84518110156106e257600085828151811061061c5761061c61112c565b60200260200101519050600085838151811061063a5761063a61112c565b602090810291909101810151600084815280835260408082206001600160a01b038e16835290935291909120549091508181101561068a5760405162461bcd60e51b8152600401610206906111b6565b6000838152602081815260408083206001600160a01b038e8116855292528083208585039055908b168252812080548492906106c7908490611200565b92505081905550505050806106db90611158565b90506105ff565b50846001600160a01b0316866001600160a01b0316826001600160a01b03167f4a39dc06d4c0dbc64b70af90fd698a233a518aa5d07e595d983b8c0526c8f7fb8787604051610732929190611218565b60405180910390a461074881878787878761095a565b505050505050565b816001600160a01b0316836001600160a01b0316036107c35760405162461bcd60e51b815260206004820152602960248201527f455243313135353a2073657474696e6720617070726f76616c20737461747573604482015268103337b91039b2b63360b91b6064820152608401610206565b6001600160a01b03838116600081815260016020908152604080832094871680845294825291829020805460ff191686151590811790915591519182527f17307eab39ab6107e8899845ad3d59bd9653f200f220920489ca2b5937696c31910160405180910390a3505050565b6001600160a01b0384166108565760405162461bcd60e51b815260040161020690611171565b33600061086285610abe565b9050600061086f85610abe565b90506000868152602081815260408083206001600160a01b038c168452909152902054858110156108b25760405162461bcd60e51b8152600401610206906111b6565b6000878152602081815260408083206001600160a01b038d8116855292528083208985039055908a168252812080548892906108ef908490611200565b909155505060408051888152602081018890526001600160a01b03808b16928c821692918816917fc3d58168c5ae7397731d063d5bbf3d657854427343f4c083240f7aacaa2d0f62910160405180910390a461094f848a8a8a8a8a610b09565b505050505050505050565b6001600160a01b0384163b156107485760405163bc197c8160e01b81526001600160a01b0385169063bc197c819061099e9089908990889088908890600401611246565b6020604051808303816000875af19250505080156109d9575060408051601f3d908101601f191682019092526109d6918101906112a4565b60015b610a85576109e56112c1565b806308c379a003610a1e57506109f96112dd565b80610a045750610a20565b8060405162461bcd60e51b81526004016102069190610c94565b505b60405162461bcd60e51b815260206004820152603460248201527f455243313135353a207472616e7366657220746f206e6f6e20455243313135356044820152732932b1b2b4bb32b91034b6b83632b6b2b73a32b960611b6064820152608401610206565b6001600160e01b0319811663bc197c8160e01b14610ab55760405162461bcd60e51b815260040161020690611367565b50505050505050565b60408051600180825281830190925260609160009190602080830190803683370190505090508281600081518110610af857610af861112c565b602090810291909101015292915050565b6001600160a01b0384163b156107485760405163f23a6e6160e01b81526001600160a01b0385169063f23a6e6190610b4d90899089908890889088906004016113af565b6020604051808303816000875af1925050508015610b88575060408051601f3d908101601f19168201909252610b85918101906112a4565b60015b610b94576109e56112c1565b6001600160e01b0319811663f23a6e6160e01b14610ab55760405162461bcd60e51b815260040161020690611367565b80356001600160a01b0381168114610bdb57600080fd5b919050565b60008060408385031215610bf357600080fd5b610bfc83610bc4565b946020939093013593505050565b6001600160e01b031981168114610c2057600080fd5b50565b600060208284031215610c3557600080fd5b8135610c4081610c0a565b9392505050565b6000815180845260005b81811015610c6d57602081850181015186830182015201610c51565b81811115610c7f576000602083870101525b50601f01601f19169290920160200192915050565b602081526000610c406020830184610c47565b600060208284031215610cb957600080fd5b5035919050565b634e487b7160e01b600052604160045260246000fd5b601f8201601f1916810167ffffffffffffffff81118282101715610cfc57610cfc610cc0565b6040525050565b600067ffffffffffffffff821115610d1d57610d1d610cc0565b5060051b60200190565b600082601f830112610d3857600080fd5b81356020610d4582610d03565b604051610d528282610cd6565b83815260059390931b8501820192828101915086841115610d7257600080fd5b8286015b84811015610d8d5780358352918301918301610d76565b509695505050505050565b600082601f830112610da957600080fd5b813567ffffffffffffffff811115610dc357610dc3610cc0565b604051610dda601f8301601f191660200182610cd6565b818152846020838601011115610def57600080fd5b816020850160208301376000918101602001919091529392505050565b600080600080600060a08688031215610e2457600080fd5b610e2d86610bc4565b9450610e3b60208701610bc4565b9350604086013567ffffffffffffffff80821115610e5857600080fd5b610e6489838a01610d27565b94506060880135915080821115610e7a57600080fd5b610e8689838a01610d27565b93506080880135915080821115610e9c57600080fd5b50610ea988828901610d98565b9150509295509295909350565b60008060408385031215610ec957600080fd5b823567ffffffffffffffff80821115610ee157600080fd5b818501915085601f830112610ef557600080fd5b81356020610f0282610d03565b604051610f0f8282610cd6565b83815260059390931b8501820192828101915089841115610f2f57600080fd5b948201945b83861015610f5457610f4586610bc4565b82529482019490820190610f34565b96505086013592505080821115610f6a57600080fd5b50610f7785828601610d27565b9150509250929050565b600081518084526020808501945080840160005b83811015610fb157815187529582019590820190600101610f95565b509495945050505050565b602081526000610c406020830184610f81565b60008060408385031215610fe257600080fd5b610feb83610bc4565b91506020830135801515811461100057600080fd5b809150509250929050565b6000806040838503121561101e57600080fd5b61102783610bc4565b915061103560208401610bc4565b90509250929050565b600080600080600060a0868803121561105657600080fd5b61105f86610bc4565b945061106d60208701610bc4565b93506040860135925060608601359150608086013567ffffffffffffffff81111561109757600080fd5b610ea988828901610d98565b600181811c908216806110b757607f821691505b6020821081036110d757634e487b7160e01b600052602260045260246000fd5b50919050565b6020808252602f908201527f455243313135353a2063616c6c6572206973206e6f7420746f6b656e206f776e60408201526e195c881b9bdc88185c1c1c9bdd9959608a1b606082015260800190565b634e487b7160e01b600052603260045260246000fd5b634e487b7160e01b600052601160045260246000fd5b60006001820161116a5761116a611142565b5060010190565b60208082526025908201527f455243313135353a207472616e7366657220746f20746865207a65726f206164604082015264647265737360d81b606082015260800190565b6020808252602a908201527f455243313135353a20696e73756666696369656e742062616c616e636520666f60408201526939103a3930b739b332b960b11b606082015260800190565b6000821982111561121357611213611142565b500190565b60408152600061122b6040830185610f81565b828103602084015261123d8185610f81565b95945050505050565b6001600160a01b0386811682528516602082015260a06040820181905260009061127290830186610f81565b82810360608401526112848186610f81565b905082810360808401526112988185610c47565b98975050505050505050565b6000602082840312156112b657600080fd5b8151610c4081610c0a565b600060033d11156112da5760046000803e5060005160e01c5b90565b600060443d10156112eb5790565b6040516003193d81016004833e81513d67ffffffffffffffff816024840111818411171561131b57505050505090565b82850191508151818111156113335750505050505090565b843d870101602082850101111561134d5750505050505090565b61135c60208286010187610cd6565b509095945050505050565b60208082526028908201527f455243313135353a204552433131353552656365697665722072656a656374656040820152676420746f6b656e7360c01b606082015260800190565b6001600160a01b03868116825285166020820152604081018490526060810183905260a0608082018190526000906113e990830184610c47565b97965050505050505056fea26469706673582212206fbd57295346a9fbb803710d07ae56696a0c5d124aac0ea44345a00b9f0f480964736f6c634300080d0033",
    "linkReferences": {}
  },
  "methodIdentifiers": {
    "_uri()": "0dccc9ad",
    "balanceOf(address,uint256)": "00fdd58e",
    "balanceOfBatch(address[],uint256[])": "4e1273f4",
    "isApprovedForAll(address,address)": "e985e9c5",
    "safeBatchTransferFrom(address,address,uint256[],uint256[],bytes)": "2eb2c2d6",
    "safeTransferFrom(address,address,uint256,uint256,bytes)": "f242432a",
    "setApprovalForAll(address,bool)": "a22cb465",
    "supportsInterface(bytes4)": "01ffc9a7",
    "uri(uint256)": "0e89341c"
  },
  "id": 2
}