{
  "abi": [
    {
      "inputs": [],
      "stateMutability": "nonpayable",
      "type": "constructor"
    },
    {
      "anonymous": false,
      "inputs": [
        {
          "indexed": true,
          "internalType": "address",
          "name": "account",
          "type": "address"
        },
        {
          "indexed": true,
          "internalType": "address",
          "name": "operator",
          "type": "address"
        },
        {
          "indexed": false,
          "internalType": "bool",
          "name": "approved",
          "type": "bool"
        }
      ],
      "name": "ApprovalForAll",
      "type": "event"
    },
    {
      "anonymous": false,
      "inputs": [
        {
          "indexed": true,
          "internalType": "bytes32",
          "name": "role",
          "type": "bytes32"
        },
        {
          "indexed": true,
          "internalType": "bytes32",
          "name": "previousAdminRole",
          "type": "bytes32"
        },
        {
          "indexed": true,
          "internalType": "bytes32",
          "name": "newAdminRole",
          "type": "bytes32"
        }
      ],
      "name": "RoleAdminChanged",
      "type": "event"
    },
    {
      "anonymous": false,
      "inputs": [
        {
          "indexed": true,
          "internalType": "bytes32",
          "name": "role",
          "type": "bytes32"
        },
        {
          "indexed": true,
          "internalType": "address",
          "name": "account",
          "type": "address"
        },
        {
          "indexed": true,
          "internalType": "address",
          "name": "sender",
          "type": "address"
        }
      ],
      "name": "RoleGranted",
      "type": "event"
    },
    {
      "anonymous": false,
      "inputs": [
        {
          "indexed": true,
          "internalType": "bytes32",
          "name": "role",
          "type": "bytes32"
        },
        {
          "indexed": true,
          "internalType": "address",
          "name": "account",
          "type": "address"
        },
        {
          "indexed": true,
          "internalType": "address",
          "name": "sender",
          "type": "address"
        }
      ],
      "name": "RoleRevoked",
      "type": "event"
    },
    {
      "anonymous": false,
      "inputs": [
        {
          "indexed": true,
          "internalType": "address",
          "name": "operator",
          "type": "address"
        },
        {
          "indexed": true,
          "internalType": "address",
          "name": "from",
          "type": "address"
        },
        {
          "indexed": true,
          "internalType": "address",
          "name": "to",
          "type": "address"
        },
        {
          "indexed": false,
          "internalType": "uint256[]",
          "name": "ids",
          "type": "uint256[]"
        },
        {
          "indexed": false,
          "internalType": "uint256[]",
          "name": "values",
          "type": "uint256[]"
        }
      ],
      "name": "TransferBatch",
      "type": "event"
    },
    {
      "anonymous": false,
      "inputs": [
        {
          "indexed": true,
          "internalType": "address",
          "name": "operator",
          "type": "address"
        },
        {
          "indexed": true,
          "internalType": "address",
          "name": "from",
          "type": "address"
        },
        {
          "indexed": true,
          "internalType": "address",
          "name": "to",
          "type": "address"
        },
        {
          "indexed": false,
          "internalType": "uint256",
          "name": "id",
          "type": "uint256"
        },
        {
          "indexed": false,
          "internalType": "uint256",
          "name": "value",
          "type": "uint256"
        }
      ],
      "name": "TransferSingle",
      "type": "event"
    },
    {
      "anonymous": false,
      "inputs": [
        {
          "indexed": false,
          "internalType": "string",
          "name": "value",
          "type": "string"
        },
        {
          "indexed": true,
          "internalType": "uint256",
          "name": "id",
          "type": "uint256"
        }
      ],
      "name": "URI",
      "type": "event"
    },
    {
      "inputs": [],
      "name": "DEFAULT_ADMIN_ROLE",
      "outputs": [
        {
          "internalType": "bytes32",
          "name": "",
          "type": "bytes32"
        }
      ],
      "stateMutability": "view",
      "type": "function"
    },
    {
      "inputs": [],
      "name": "MINTER_ROLE",
      "outputs": [
        {
          "internalType": "bytes32",
          "name": "",
          "type": "bytes32"
        }
      ],
      "stateMutability": "view",
      "type": "function"
    },
    {
      "inputs": [],
      "name": "URI_SETTER_ROLE",
      "outputs": [
        {
          "internalType": "bytes32",
          "name": "",
          "type": "bytes32"
        }
      ],
      "stateMutability": "view",
      "type": "function"
    },
    {
      "inputs": [],
      "name": "_uri",
      "outputs": [
        {
          "internalType": "string",
          "name": "",
          "type": "string"
        }
      ],
      "stateMutability": "view",
      "type": "function"
    },
    {
      "inputs": [
        {
          "internalType": "string",
          "name": "_name",
          "type": "string"
        }
      ],
      "name": "addManufactor",
      "outputs": [],
      "stateMutability": "nonpayable",
      "type": "function"
    },
    {
      "inputs": [
        {
          "internalType": "string",
          "name": "_name",
          "type": "string"
        },
        {
          "internalType": "uint256",
          "name": "_categoryId",
          "type": "uint256"
        }
      ],
      "name": "addOrEditCategory",
      "outputs": [],
      "stateMutability": "nonpayable",
      "type": "function"
    },
    {
      "inputs": [
        {
          "internalType": "address",
          "name": "account",
          "type": "address"
        },
        {
          "internalType": "uint256",
          "name": "id",
          "type": "uint256"
        }
      ],
      "name": "balanceOf",
      "outputs": [
        {
          "internalType": "uint256",
          "name": "",
          "type": "uint256"
        }
      ],
      "stateMutability": "view",
      "type": "function"
    },
    {
      "inputs": [
        {
          "internalType": "address[]",
          "name": "accounts",
          "type": "address[]"
        },
        {
          "internalType": "uint256[]",
          "name": "ids",
          "type": "uint256[]"
        }
      ],
      "name": "balanceOfBatch",
      "outputs": [
        {
          "internalType": "uint256[]",
          "name": "",
          "type": "uint256[]"
        }
      ],
      "stateMutability": "view",
      "type": "function"
    },
    {
      "inputs": [
        {
          "internalType": "uint256",
          "name": "",
          "type": "uint256"
        }
      ],
      "name": "category",
      "outputs": [
        {
          "internalType": "string",
          "name": "",
          "type": "string"
        }
      ],
      "stateMutability": "view",
      "type": "function"
    },
    {
      "inputs": [],
      "name": "categoryId",
      "outputs": [
        {
          "internalType": "uint256",
          "name": "",
          "type": "uint256"
        }
      ],
      "stateMutability": "view",
      "type": "function"
    },
    {
      "inputs": [
        {
          "internalType": "uint256",
          "name": "id",
          "type": "uint256"
        }
      ],
      "name": "exists",
      "outputs": [
        {
          "internalType": "bool",
          "name": "",
          "type": "bool"
        }
      ],
      "stateMutability": "view",
      "type": "function"
    },
    {
      "inputs": [],
      "name": "getLastTokenId",
      "outputs": [
        {
          "internalType": "uint256",
          "name": "",
          "type": "uint256"
        }
      ],
      "stateMutability": "view",
      "type": "function"
    },
    {
      "inputs": [
        {
          "internalType": "bytes32",
          "name": "role",
          "type": "bytes32"
        }
      ],
      "name": "getRoleAdmin",
      "outputs": [
        {
          "internalType": "bytes32",
          "name": "",
          "type": "bytes32"
        }
      ],
      "stateMutability": "view",
      "type": "function"
    },
    {
      "inputs": [
        {
          "internalType": "bytes32",
          "name": "role",
          "type": "bytes32"
        },
        {
          "internalType": "address",
          "name": "account",
          "type": "address"
        }
      ],
      "name": "grantRole",
      "outputs": [],
      "stateMutability": "nonpayable",
      "type": "function"
    },
    {
      "inputs": [
        {
          "internalType": "bytes32",
          "name": "role",
          "type": "bytes32"
        },
        {
          "internalType": "address",
          "name": "account",
          "type": "address"
        }
      ],
      "name": "hasRole",
      "outputs": [
        {
          "internalType": "bool",
          "name": "",
          "type": "bool"
        }
      ],
      "stateMutability": "view",
      "type": "function"
    },
    {
      "inputs": [
        {
          "internalType": "address",
          "name": "account",
          "type": "address"
        },
        {
          "internalType": "address",
          "name": "operator",
          "type": "address"
        }
      ],
      "name": "isApprovedForAll",
      "outputs": [
        {
          "internalType": "bool",
          "name": "",
          "type": "bool"
        }
      ],
      "stateMutability": "view",
      "type": "function"
    },
    {
      "inputs": [
        {
          "internalType": "uint256",
          "name": "",
          "type": "uint256"
        }
      ],
      "name": "manufactor",
      "outputs": [
        {
          "internalType": "string",
          "name": "",
          "type": "string"
        }
      ],
      "stateMutability": "view",
      "type": "function"
    },
    {
      "inputs": [],
      "name": "manufactorId",
      "outputs": [
        {
          "internalType": "uint256",
          "name": "",
          "type": "uint256"
        }
      ],
      "stateMutability": "view",
      "type": "function"
    },
    {
      "inputs": [
        {
          "internalType": "address",
          "name": "account",
          "type": "address"
        },
        {
          "internalType": "uint256",
          "name": "id",
          "type": "uint256"
        },
        {
          "internalType": "uint256",
          "name": "amount",
          "type": "uint256"
        },
        {
          "internalType": "bytes",
          "name": "data",
          "type": "bytes"
        }
      ],
      "name": "mint",
      "outputs": [],
      "stateMutability": "nonpayable",
      "type": "function"
    },
    {
      "inputs": [
        {
          "internalType": "address",
          "name": "to",
          "type": "address"
        },
        {
          "internalType": "uint256[]",
          "name": "ids",
          "type": "uint256[]"
        },
        {
          "internalType": "uint256[]",
          "name": "amounts",
          "type": "uint256[]"
        },
        {
          "internalType": "bytes",
          "name": "data",
          "type": "bytes"
        }
      ],
      "name": "mintBatch",
      "outputs": [],
      "stateMutability": "nonpayable",
      "type": "function"
    },
    {
      "inputs": [
        {
          "internalType": "bytes32",
          "name": "role",
          "type": "bytes32"
        },
        {
          "internalType": "address",
          "name": "account",
          "type": "address"
        }
      ],
      "name": "renounceRole",
      "outputs": [],
      "stateMutability": "nonpayable",
      "type": "function"
    },
    {
      "inputs": [
        {
          "internalType": "bytes32",
          "name": "role",
          "type": "bytes32"
        },
        {
          "internalType": "address",
          "name": "account",
          "type": "address"
        }
      ],
      "name": "revokeRole",
      "outputs": [],
      "stateMutability": "nonpayable",
      "type": "function"
    },
    {
      "inputs": [
        {
          "internalType": "address",
          "name": "from",
          "type": "address"
        },
        {
          "internalType": "address",
          "name": "to",
          "type": "address"
        },
        {
          "internalType": "uint256[]",
          "name": "ids",
          "type": "uint256[]"
        },
        {
          "internalType": "uint256[]",
          "name": "amounts",
          "type": "uint256[]"
        },
        {
          "internalType": "bytes",
          "name": "data",
          "type": "bytes"
        }
      ],
      "name": "safeBatchTransferFrom",
      "outputs": [],
      "stateMutability": "nonpayable",
      "type": "function"
    },
    {
      "inputs": [
        {
          "internalType": "address",
          "name": "from",
          "type": "address"
        },
        {
          "internalType": "address",
          "name": "to",
          "type": "address"
        },
        {
          "internalType": "uint256",
          "name": "id",
          "type": "uint256"
        },
        {
          "internalType": "uint256",
          "name": "amount",
          "type": "uint256"
        },
        {
          "internalType": "bytes",
          "name": "data",
          "type": "bytes"
        }
      ],
      "name": "safeTransferFrom",
      "outputs": [],
      "stateMutability": "nonpayable",
      "type": "function"
    },
    {
      "inputs": [
        {
          "internalType": "address",
          "name": "operator",
          "type": "address"
        },
        {
          "internalType": "bool",
          "name": "approved",
          "type": "bool"
        }
      ],
      "name": "setApprovalForAll",
      "outputs": [],
      "stateMutability": "nonpayable",
      "type": "function"
    },
    {
      "inputs": [
        {
          "internalType": "string",
          "name": "newuri",
          "type": "string"
        }
      ],
      "name": "setURI",
      "outputs": [],
      "stateMutability": "nonpayable",
      "type": "function"
    },
    {
      "inputs": [
        {
          "internalType": "bytes4",
          "name": "interfaceId",
          "type": "bytes4"
        }
      ],
      "name": "supportsInterface",
      "outputs": [
        {
          "internalType": "bool",
          "name": "",
          "type": "bool"
        }
      ],
      "stateMutability": "view",
      "type": "function"
    },
    {
      "inputs": [
        {
          "internalType": "uint256",
          "name": "id",
          "type": "uint256"
        }
      ],
      "name": "totalSupply",
      "outputs": [
        {
          "internalType": "uint256",
          "name": "",
          "type": "uint256"
        }
      ],
      "stateMutability": "view",
      "type": "function"
    },
    {
      "inputs": [
        {
          "internalType": "uint256",
          "name": "_tokenId",
          "type": "uint256"
        }
      ],
      "name": "uri",
      "outputs": [
        {
          "internalType": "string",
          "name": "",
          "type": "string"
        }
      ],
      "stateMutability": "view",
      "type": "function"
    }
  ],
  "bytecode": {
    "object": "0x60806040523480156200001157600080fd5b506040518060600160405280602e815260200162002713602e91396200003781620000a3565b5062000045600033620000bc565b620000717f7804d923f43a17d325d77e781528e0793b2edd9890ab45fc64efd7b4b427744c33620000bc565b6200009d7f9f2df0fed2c77648de5860a4cc508cd0818c85b8b8a1ab4ceeef8d981c8956a633620000bc565b62000242565b8051620000b890600290602084019062000160565b5050565b60008281526003602090815260408083206001600160a01b038516845290915290205460ff16620000b85760008281526003602090815260408083206001600160a01b03851684529091529020805460ff191660011790556200011c3390565b6001600160a01b0316816001600160a01b0316837f2f8788117e7eff1d82e926ec794901d17c78024a50270940304540a733656f0d60405160405180910390a45050565b8280546200016e9062000206565b90600052602060002090601f016020900481019282620001925760008555620001dd565b82601f10620001ad57805160ff1916838001178555620001dd565b82800160010185558215620001dd579182015b82811115620001dd578251825591602001919060010190620001c0565b50620001eb929150620001ef565b5090565b5b80821115620001eb5760008155600101620001f0565b600181811c908216806200021b57607f821691505b6020821081036200023c57634e487b7160e01b600052602260045260246000fd5b50919050565b6124c180620002526000396000f3fe608060405234801561001057600080fd5b50600436106101ce5760003560e01c80634f558e7911610104578063a22cb465116100a2578063d547741f11610071578063d547741f1461040c578063d9f831b21461041f578063e985e9c514610432578063f242432a1461046e57600080fd5b8063a22cb465146103a9578063b503a2b9146103bc578063bd85b039146103c5578063d5391393146103e557600080fd5b806383c4c00d116100de57806383c4c00d1461037d57806391d148541461038557806395a2b8b914610398578063a217fddf146103a157600080fd5b80634f558e7914610321578063731133e9146103435780637f3457101461035657600080fd5b806320882b8f116101715780632eb2c2d61161014b5780632eb2c2d6146102c85780632f2ff15d146102db57806336568abe146102ee5780634e1273f41461030157600080fd5b806320882b8f1461027f578063248a9ca314610292578063253eca1f146102b557600080fd5b80630dccc9ad116101ad5780630dccc9ad146102315780630e89341c146102465780631dba355d146102595780631f7fdffa1461026c57600080fd5b8062fdd58e146101d357806301ffc9a7146101f957806302fe53051461021c575b600080fd5b6101e66101e136600461193d565b610481565b6040519081526020015b60405180910390f35b61020c61020736600461197d565b610517565b60405190151581526020016101f0565b61022f61022a366004611a4f565b610528565b005b61023961055f565b6040516101f09190611adb565b610239610254366004611aee565b6105ed565b61022f610267366004611a4f565b610695565b61022f61027a366004611b9b565b6106dc565b61023961028d366004611aee565b61070d565b6101e66102a0366004611aee565b60009081526003602052604090206001015490565b6102396102c3366004611aee565b610726565b61022f6102d6366004611c33565b61073f565b61022f6102e9366004611cdc565b610784565b61022f6102fc366004611cdc565b6107a9565b61031461030f366004611d08565b610823565b6040516101f09190611e0d565b61020c61032f366004611aee565b600090815260046020526040902054151590565b61022f610351366004611e20565b61094c565b6101e67f7804d923f43a17d325d77e781528e0793b2edd9890ab45fc64efd7b4b427744c81565b6101e66109a8565b61020c610393366004611cdc565b6109b8565b6101e660095481565b6101e6600081565b61022f6103b7366004611e74565b6109e3565b6101e660075481565b6101e66103d3366004611aee565b60009081526004602052604090205490565b6101e67f9f2df0fed2c77648de5860a4cc508cd0818c85b8b8a1ab4ceeef8d981c8956a681565b61022f61041a366004611cdc565b6109ee565b61022f61042d366004611eb0565b610a13565b61020c610440366004611ef4565b6001600160a01b03918216600090815260016020908152604080832093909416825291909152205460ff1690565b61022f61047c366004611f1e565b610aa6565b60006001600160a01b0383166104f15760405162461bcd60e51b815260206004820152602a60248201527f455243313135353a2061646472657373207a65726f206973206e6f742061207660448201526930b634b21037bbb732b960b11b60648201526084015b60405180910390fd5b506000908152602081815260408083206001600160a01b03949094168352929052205490565b600061052282610aeb565b92915050565b7f7804d923f43a17d325d77e781528e0793b2edd9890ab45fc64efd7b4b427744c61055281610b10565b61055b82610b1d565b5050565b6002805461056c90611f82565b80601f016020809104026020016040519081016040528092919081815260200182805461059890611f82565b80156105e55780601f106105ba576101008083540402835291602001916105e5565b820191906000526020600020905b8154815290600101906020018083116105c857829003601f168201915b505050505081565b60606105f76109a8565b8211156106395760405162461bcd60e51b815260206004820152601060248201526f1a5b9d985b1a59081d1bdad95b881a5960821b60448201526064016104e8565b60006002805461064890611f82565b9050116106645760405180602001604052806000815250610522565b600261066f83610b30565b604051602001610680929190611fd8565b60405160208183030381529060405292915050565b60006106a081610b10565b600980549060006106b083612094565b9091555050600954600090815260086020908152604090912083516106d792850190611888565b505050565b7f9f2df0fed2c77648de5860a4cc508cd0818c85b8b8a1ab4ceeef8d981c8956a661070681610b10565b5050505050565b6008602052600090815260409020805461056c90611f82565b6006602052600090815260409020805461056c90611f82565b6001600160a01b03851633148061075b575061075b8533610440565b6107775760405162461bcd60e51b81526004016104e8906120ad565b6107068585858585610c38565b60008281526003602052604090206001015461079f81610b10565b6106d78383610e1b565b6001600160a01b03811633146108195760405162461bcd60e51b815260206004820152602f60248201527f416363657373436f6e74726f6c3a2063616e206f6e6c792072656e6f756e636560448201526e103937b632b9903337b91039b2b63360891b60648201526084016104e8565b61055b8282610ea1565b606081518351146108885760405162461bcd60e51b815260206004820152602960248201527f455243313135353a206163636f756e747320616e6420696473206c656e677468604482015268040dad2e6dac2e8c6d60bb1b60648201526084016104e8565b600083516001600160401b038111156108a3576108a361199a565b6040519080825280602002602001820160405280156108cc578160200160208202803683370190505b50905060005b8451811015610944576109178582815181106108f0576108f06120fc565b602002602001015185838151811061090a5761090a6120fc565b6020026020010151610481565b828281518110610929576109296120fc565b602090810291909101015261093d81612094565b90506108d2565b509392505050565b7f9f2df0fed2c77648de5860a4cc508cd0818c85b8b8a1ab4ceeef8d981c8956a661097681610b10565b610984600580546001019055565b600061098f60055490565b90508094506109a086828686610f08565b505050505050565b60006109b360055490565b905090565b60009182526003602090815260408084206001600160a01b0393909316845291905290205460ff1690565b61055b33838361102b565b600082815260036020526040902060010154610a0981610b10565b6106d78383610ea1565b6000610a1e81610b10565b8115801590610a45575060008281526006602052604081208054610a4190611f82565b9050115b15610a6f5760008281526006602090815260409091208451610a6992860190611888565b50505050565b60078054906000610a7f83612094565b909155505060075460009081526006602090815260409091208451610a6992860190611888565b6001600160a01b038516331480610ac25750610ac28533610440565b610ade5760405162461bcd60e51b81526004016104e8906120ad565b610706858585858561110b565b60006001600160e01b03198216637965db0b60e01b1480610522575061052282611243565b610b1a8133611293565b50565b805161055b906002906020840190611888565b606081600003610b575750506040805180820190915260018152600360fc1b602082015290565b8160005b8115610b815780610b6b81612094565b9150610b7a9050600a83612128565b9150610b5b565b6000816001600160401b03811115610b9b57610b9b61199a565b6040519080825280601f01601f191660200182016040528015610bc5576020820181803683370190505b5090505b8415610c3057610bda60018361213c565b9150610be7600a86612153565b610bf2906030612167565b60f81b818381518110610c0757610c076120fc565b60200101906001600160f81b031916908160001a905350610c29600a86612128565b9450610bc9565b949350505050565b8151835114610c9a5760405162461bcd60e51b815260206004820152602860248201527f455243313135353a2069647320616e6420616d6f756e7473206c656e677468206044820152670dad2e6dac2e8c6d60c31b60648201526084016104e8565b6001600160a01b038416610cc05760405162461bcd60e51b81526004016104e89061217f565b33610ccf8187878787876112ec565b60005b8451811015610db5576000858281518110610cef57610cef6120fc565b602002602001015190506000858381518110610d0d57610d0d6120fc565b602090810291909101810151600084815280835260408082206001600160a01b038e168352909352919091205490915081811015610d5d5760405162461bcd60e51b81526004016104e8906121c4565b6000838152602081815260408083206001600160a01b038e8116855292528083208585039055908b16825281208054849290610d9a908490612167565b9250508190555050505080610dae90612094565b9050610cd2565b50846001600160a01b0316866001600160a01b0316826001600160a01b03167f4a39dc06d4c0dbc64b70af90fd698a233a518aa5d07e595d983b8c0526c8f7fb8787604051610e0592919061220e565b60405180910390a46109a08187878787876112fa565b610e2582826109b8565b61055b5760008281526003602090815260408083206001600160a01b03851684529091529020805460ff19166001179055610e5d3390565b6001600160a01b0316816001600160a01b0316837f2f8788117e7eff1d82e926ec794901d17c78024a50270940304540a733656f0d60405160405180910390a45050565b610eab82826109b8565b1561055b5760008281526003602090815260408083206001600160a01b0385168085529252808320805460ff1916905551339285917ff6391f5c32d9c69d2a47ea670b442974b53935d1edc7fd64eb21e047a839171b9190a45050565b6001600160a01b038416610f685760405162461bcd60e51b815260206004820152602160248201527f455243313135353a206d696e7420746f20746865207a65726f206164647265736044820152607360f81b60648201526084016104e8565b336000610f7485611455565b90506000610f8185611455565b9050610f92836000898585896112ec565b6000868152602081815260408083206001600160a01b038b16845290915281208054879290610fc2908490612167565b909155505060408051878152602081018790526001600160a01b03808a1692600092918716917fc3d58168c5ae7397731d063d5bbf3d657854427343f4c083240f7aacaa2d0f62910160405180910390a4611022836000898989896114a0565b50505050505050565b816001600160a01b0316836001600160a01b03160361109e5760405162461bcd60e51b815260206004820152602960248201527f455243313135353a2073657474696e6720617070726f76616c20737461747573604482015268103337b91039b2b63360b91b60648201526084016104e8565b6001600160a01b03838116600081815260016020908152604080832094871680845294825291829020805460ff191686151590811790915591519182527f17307eab39ab6107e8899845ad3d59bd9653f200f220920489ca2b5937696c31910160405180910390a3505050565b6001600160a01b0384166111315760405162461bcd60e51b81526004016104e89061217f565b33600061113d85611455565b9050600061114a85611455565b905061115a8389898585896112ec565b6000868152602081815260408083206001600160a01b038c1684529091529020548581101561119b5760405162461bcd60e51b81526004016104e8906121c4565b6000878152602081815260408083206001600160a01b038d8116855292528083208985039055908a168252812080548892906111d8908490612167565b909155505060408051888152602081018890526001600160a01b03808b16928c821692918816917fc3d58168c5ae7397731d063d5bbf3d657854427343f4c083240f7aacaa2d0f62910160405180910390a4611238848a8a8a8a8a6114a0565b505050505050505050565b60006001600160e01b03198216636cdb3d1360e11b148061127457506001600160e01b031982166303a24d0760e21b145b8061052257506301ffc9a760e01b6001600160e01b0319831614610522565b61129d82826109b8565b61055b576112aa8161155b565b6112b583602061156d565b6040516020016112c6929190612233565b60408051601f198184030181529082905262461bcd60e51b82526104e891600401611adb565b6109a086868686868661170f565b6001600160a01b0384163b156109a05760405163bc197c8160e01b81526001600160a01b0385169063bc197c819061133e90899089908890889088906004016122a8565b6020604051808303816000875af1925050508015611379575060408051601f3d908101601f1916820190925261137691810190612306565b60015b61142557611385612323565b806308c379a0036113be575061139961233f565b806113a457506113c0565b8060405162461bcd60e51b81526004016104e89190611adb565b505b60405162461bcd60e51b815260206004820152603460248201527f455243313135353a207472616e7366657220746f206e6f6e20455243313135356044820152732932b1b2b4bb32b91034b6b83632b6b2b73a32b960611b60648201526084016104e8565b6001600160e01b0319811663bc197c8160e01b146110225760405162461bcd60e51b81526004016104e8906123c8565b6040805160018082528183019092526060916000919060208083019080368337019050509050828160008151811061148f5761148f6120fc565b602090810291909101015292915050565b6001600160a01b0384163b156109a05760405163f23a6e6160e01b81526001600160a01b0385169063f23a6e61906114e49089908990889088908890600401612410565b6020604051808303816000875af192505050801561151f575060408051601f3d908101601f1916820190925261151c91810190612306565b60015b61152b57611385612323565b6001600160e01b0319811663f23a6e6160e01b146110225760405162461bcd60e51b81526004016104e8906123c8565b60606105226001600160a01b03831660145b6060600061157c836002612455565b611587906002612167565b6001600160401b0381111561159e5761159e61199a565b6040519080825280601f01601f1916602001820160405280156115c8576020820181803683370190505b509050600360fc1b816000815181106115e3576115e36120fc565b60200101906001600160f81b031916908160001a905350600f60fb1b81600181518110611612576116126120fc565b60200101906001600160f81b031916908160001a9053506000611636846002612455565b611641906001612167565b90505b60018111156116b9576f181899199a1a9b1b9c1cb0b131b232b360811b85600f1660108110611675576116756120fc565b1a60f81b82828151811061168b5761168b6120fc565b60200101906001600160f81b031916908160001a90535060049490941c936116b281612474565b9050611644565b5083156117085760405162461bcd60e51b815260206004820181905260248201527f537472696e67733a20686578206c656e67746820696e73756666696369656e7460448201526064016104e8565b9392505050565b6001600160a01b0385166117965760005b83518110156117945782818151811061173b5761173b6120fc565b602002602001015160046000868481518110611759576117596120fc565b60200260200101518152602001908152602001600020600082825461177e9190612167565b9091555061178d905081612094565b9050611720565b505b6001600160a01b0384166109a05760005b83518110156110225760008482815181106117c4576117c46120fc565b6020026020010151905060008483815181106117e2576117e26120fc565b60200260200101519050600060046000848152602001908152602001600020549050818110156118655760405162461bcd60e51b815260206004820152602860248201527f455243313135353a206275726e20616d6f756e74206578636565647320746f74604482015267616c537570706c7960c01b60648201526084016104e8565b6000928352600460205260409092209103905561188181612094565b90506117a7565b82805461189490611f82565b90600052602060002090601f0160209004810192826118b657600085556118fc565b82601f106118cf57805160ff19168380011785556118fc565b828001600101855582156118fc579182015b828111156118fc5782518255916020019190600101906118e1565b5061190892915061190c565b5090565b5b80821115611908576000815560010161190d565b80356001600160a01b038116811461193857600080fd5b919050565b6000806040838503121561195057600080fd5b61195983611921565b946020939093013593505050565b6001600160e01b031981168114610b1a57600080fd5b60006020828403121561198f57600080fd5b813561170881611967565b634e487b7160e01b600052604160045260246000fd5b601f8201601f191681016001600160401b03811182821017156119d5576119d561199a565b6040525050565b600082601f8301126119ed57600080fd5b81356001600160401b03811115611a0657611a0661199a565b604051611a1d601f8301601f1916602001826119b0565b818152846020838601011115611a3257600080fd5b816020850160208301376000918101602001919091529392505050565b600060208284031215611a6157600080fd5b81356001600160401b03811115611a7757600080fd5b610c30848285016119dc565b60005b83811015611a9e578181015183820152602001611a86565b83811115610a695750506000910152565b60008151808452611ac7816020860160208601611a83565b601f01601f19169290920160200192915050565b6020815260006117086020830184611aaf565b600060208284031215611b0057600080fd5b5035919050565b60006001600160401b03821115611b2057611b2061199a565b5060051b60200190565b600082601f830112611b3b57600080fd5b81356020611b4882611b07565b604051611b5582826119b0565b83815260059390931b8501820192828101915086841115611b7557600080fd5b8286015b84811015611b905780358352918301918301611b79565b509695505050505050565b60008060008060808587031215611bb157600080fd5b611bba85611921565b935060208501356001600160401b0380821115611bd657600080fd5b611be288838901611b2a565b94506040870135915080821115611bf857600080fd5b611c0488838901611b2a565b93506060870135915080821115611c1a57600080fd5b50611c27878288016119dc565b91505092959194509250565b600080600080600060a08688031215611c4b57600080fd5b611c5486611921565b9450611c6260208701611921565b935060408601356001600160401b0380821115611c7e57600080fd5b611c8a89838a01611b2a565b94506060880135915080821115611ca057600080fd5b611cac89838a01611b2a565b93506080880135915080821115611cc257600080fd5b50611ccf888289016119dc565b9150509295509295909350565b60008060408385031215611cef57600080fd5b82359150611cff60208401611921565b90509250929050565b60008060408385031215611d1b57600080fd5b82356001600160401b0380821115611d3257600080fd5b818501915085601f830112611d4657600080fd5b81356020611d5382611b07565b604051611d6082826119b0565b83815260059390931b8501820192828101915089841115611d8057600080fd5b948201945b83861015611da557611d9686611921565b82529482019490820190611d85565b96505086013592505080821115611dbb57600080fd5b50611dc885828601611b2a565b9150509250929050565b600081518084526020808501945080840160005b83811015611e0257815187529582019590820190600101611de6565b509495945050505050565b6020815260006117086020830184611dd2565b60008060008060808587031215611e3657600080fd5b611e3f85611921565b9350602085013592506040850135915060608501356001600160401b03811115611e6857600080fd5b611c27878288016119dc565b60008060408385031215611e8757600080fd5b611e9083611921565b915060208301358015158114611ea557600080fd5b809150509250929050565b60008060408385031215611ec357600080fd5b82356001600160401b03811115611ed957600080fd5b611ee5858286016119dc565b95602094909401359450505050565b60008060408385031215611f0757600080fd5b611f1083611921565b9150611cff60208401611921565b600080600080600060a08688031215611f3657600080fd5b611f3f86611921565b9450611f4d60208701611921565b9350604086013592506060860135915060808601356001600160401b03811115611f7657600080fd5b611ccf888289016119dc565b600181811c90821680611f9657607f821691505b602082108103611fb657634e487b7160e01b600052602260045260246000fd5b50919050565b60008151611fce818560208601611a83565b9290920192915050565b600080845481600182811c915080831680611ff457607f831692505b6020808410820361201357634e487b7160e01b86526022600452602486fd5b818015612027576001811461203857612065565b60ff19861689528489019650612065565b60008b81526020902060005b8681101561205d5781548b820152908501908301612044565b505084890196505b5050505050506120758185611fbc565b95945050505050565b634e487b7160e01b600052601160045260246000fd5b6000600182016120a6576120a661207e565b5060010190565b6020808252602f908201527f455243313135353a2063616c6c6572206973206e6f7420746f6b656e206f776e60408201526e195c881b9bdc88185c1c1c9bdd9959608a1b606082015260800190565b634e487b7160e01b600052603260045260246000fd5b634e487b7160e01b600052601260045260246000fd5b60008261213757612137612112565b500490565b60008282101561214e5761214e61207e565b500390565b60008261216257612162612112565b500690565b6000821982111561217a5761217a61207e565b500190565b60208082526025908201527f455243313135353a207472616e7366657220746f20746865207a65726f206164604082015264647265737360d81b606082015260800190565b6020808252602a908201527f455243313135353a20696e73756666696369656e742062616c616e636520666f60408201526939103a3930b739b332b960b11b606082015260800190565b6040815260006122216040830185611dd2565b82810360208401526120758185611dd2565b7f416363657373436f6e74726f6c3a206163636f756e742000000000000000000081526000835161226b816017850160208801611a83565b7001034b99036b4b9b9b4b733903937b6329607d1b601791840191820152835161229c816028840160208801611a83565b01602801949350505050565b6001600160a01b0386811682528516602082015260a0604082018190526000906122d490830186611dd2565b82810360608401526122e68186611dd2565b905082810360808401526122fa8185611aaf565b98975050505050505050565b60006020828403121561231857600080fd5b815161170881611967565b600060033d111561233c5760046000803e5060005160e01c5b90565b600060443d101561234d5790565b6040516003193d81016004833e81513d6001600160401b03816024840111818411171561237c57505050505090565b82850191508151818111156123945750505050505090565b843d87010160208285010111156123ae5750505050505090565b6123bd602082860101876119b0565b509095945050505050565b60208082526028908201527f455243313135353a204552433131353552656365697665722072656a656374656040820152676420746f6b656e7360c01b606082015260800190565b6001600160a01b03868116825285166020820152604081018490526060810183905260a06080820181905260009061244a90830184611aaf565b979650505050505050565b600081600019048311821515161561246f5761246f61207e565b500290565b6000816124835761248361207e565b50600019019056fea2646970667358221220cd1684239cfd8f26e3c4f93c7d28c8ceb7f4119b76c07b3e4ba1d976c182ab8964736f6c634300080d003368747470733a2f2f6f6d6e6967616961746f6b656e697a65722e6865726f6b756170702e636f6d2f746f6b656e2f",
    "linkReferences": {}
  },
  "methodIdentifiers": {
    "DEFAULT_ADMIN_ROLE()": "a217fddf",
    "MINTER_ROLE()": "d5391393",
    "URI_SETTER_ROLE()": "7f345710",
    "_uri()": "0dccc9ad",
    "addManufactor(string)": "1dba355d",
    "addOrEditCategory(string,uint256)": "d9f831b2",
    "balanceOf(address,uint256)": "00fdd58e",
    "balanceOfBatch(address[],uint256[])": "4e1273f4",
    "category(uint256)": "253eca1f",
    "categoryId()": "b503a2b9",
    "exists(uint256)": "4f558e79",
    "getLastTokenId()": "83c4c00d",
    "getRoleAdmin(bytes32)": "248a9ca3",
    "grantRole(bytes32,address)": "2f2ff15d",
    "hasRole(bytes32,address)": "91d14854",
    "isApprovedForAll(address,address)": "e985e9c5",
    "manufactor(uint256)": "20882b8f",
    "manufactorId()": "95a2b8b9",
    "mint(address,uint256,uint256,bytes)": "731133e9",
    "mintBatch(address,uint256[],uint256[],bytes)": "1f7fdffa",
    "renounceRole(bytes32,address)": "36568abe",
    "revokeRole(bytes32,address)": "d547741f",
    "safeBatchTransferFrom(address,address,uint256[],uint256[],bytes)": "2eb2c2d6",
    "safeTransferFrom(address,address,uint256,uint256,bytes)": "f242432a",
    "setApprovalForAll(address,bool)": "a22cb465",
    "setURI(string)": "02fe5305",
    "supportsInterface(bytes4)": "01ffc9a7",
    "totalSupply(uint256)": "bd85b039",
    "uri(uint256)": "0e89341c"
  },
  "id": 13
}