{
  "abi": [
    {
      "inputs": [],
      "stateMutability": "nonpayable",
      "type": "constructor"
    },
    {
      "anonymous": false,
      "inputs": [
        {
          "indexed": true,
          "internalType": "address",
          "name": "account",
          "type": "address"
        },
        {
          "indexed": true,
          "internalType": "address",
          "name": "operator",
          "type": "address"
        },
        {
          "indexed": false,
          "internalType": "bool",
          "name": "approved",
          "type": "bool"
        }
      ],
      "name": "ApprovalForAll",
      "type": "event"
    },
    {
      "anonymous": false,
      "inputs": [
        {
          "indexed": true,
          "internalType": "bytes32",
          "name": "role",
          "type": "bytes32"
        },
        {
          "indexed": true,
          "internalType": "bytes32",
          "name": "previousAdminRole",
          "type": "bytes32"
        },
        {
          "indexed": true,
          "internalType": "bytes32",
          "name": "newAdminRole",
          "type": "bytes32"
        }
      ],
      "name": "RoleAdminChanged",
      "type": "event"
    },
    {
      "anonymous": false,
      "inputs": [
        {
          "indexed": true,
          "internalType": "bytes32",
          "name": "role",
          "type": "bytes32"
        },
        {
          "indexed": true,
          "internalType": "address",
          "name": "account",
          "type": "address"
        },
        {
          "indexed": true,
          "internalType": "address",
          "name": "sender",
          "type": "address"
        }
      ],
      "name": "RoleGranted",
      "type": "event"
    },
    {
      "anonymous": false,
      "inputs": [
        {
          "indexed": true,
          "internalType": "bytes32",
          "name": "role",
          "type": "bytes32"
        },
        {
          "indexed": true,
          "internalType": "address",
          "name": "account",
          "type": "address"
        },
        {
          "indexed": true,
          "internalType": "address",
          "name": "sender",
          "type": "address"
        }
      ],
      "name": "RoleRevoked",
      "type": "event"
    },
    {
      "anonymous": false,
      "inputs": [
        {
          "indexed": true,
          "internalType": "address",
          "name": "operator",
          "type": "address"
        },
        {
          "indexed": true,
          "internalType": "address",
          "name": "from",
          "type": "address"
        },
        {
          "indexed": true,
          "internalType": "address",
          "name": "to",
          "type": "address"
        },
        {
          "indexed": false,
          "internalType": "uint256[]",
          "name": "ids",
          "type": "uint256[]"
        },
        {
          "indexed": false,
          "internalType": "uint256[]",
          "name": "values",
          "type": "uint256[]"
        }
      ],
      "name": "TransferBatch",
      "type": "event"
    },
    {
      "anonymous": false,
      "inputs": [
        {
          "indexed": true,
          "internalType": "address",
          "name": "operator",
          "type": "address"
        },
        {
          "indexed": true,
          "internalType": "address",
          "name": "from",
          "type": "address"
        },
        {
          "indexed": true,
          "internalType": "address",
          "name": "to",
          "type": "address"
        },
        {
          "indexed": false,
          "internalType": "uint256",
          "name": "id",
          "type": "uint256"
        },
        {
          "indexed": false,
          "internalType": "uint256",
          "name": "value",
          "type": "uint256"
        }
      ],
      "name": "TransferSingle",
      "type": "event"
    },
    {
      "anonymous": false,
      "inputs": [
        {
          "indexed": false,
          "internalType": "string",
          "name": "value",
          "type": "string"
        },
        {
          "indexed": true,
          "internalType": "uint256",
          "name": "id",
          "type": "uint256"
        }
      ],
      "name": "URI",
      "type": "event"
    },
    {
      "inputs": [],
      "name": "DEFAULT_ADMIN_ROLE",
      "outputs": [
        {
          "internalType": "bytes32",
          "name": "",
          "type": "bytes32"
        }
      ],
      "stateMutability": "view",
      "type": "function"
    },
    {
      "inputs": [],
      "name": "MINTER_ROLE",
      "outputs": [
        {
          "internalType": "bytes32",
          "name": "",
          "type": "bytes32"
        }
      ],
      "stateMutability": "view",
      "type": "function"
    },
    {
      "inputs": [],
      "name": "URI_SETTER_ROLE",
      "outputs": [
        {
          "internalType": "bytes32",
          "name": "",
          "type": "bytes32"
        }
      ],
      "stateMutability": "view",
      "type": "function"
    },
    {
      "inputs": [],
      "name": "_uri",
      "outputs": [
        {
          "internalType": "string",
          "name": "",
          "type": "string"
        }
      ],
      "stateMutability": "view",
      "type": "function"
    },
    {
      "inputs": [
        {
          "internalType": "string",
          "name": "_name",
          "type": "string"
        }
      ],
      "name": "addManufactor",
      "outputs": [],
      "stateMutability": "nonpayable",
      "type": "function"
    },
    {
      "inputs": [
        {
          "internalType": "string",
          "name": "_name",
          "type": "string"
        },
        {
          "internalType": "uint64",
          "name": "_categoryId",
          "type": "uint64"
        }
      ],
      "name": "addOrEditCategory",
      "outputs": [],
      "stateMutability": "nonpayable",
      "type": "function"
    },
    {
      "inputs": [
        {
          "internalType": "address",
          "name": "account",
          "type": "address"
        },
        {
          "internalType": "uint256",
          "name": "id",
          "type": "uint256"
        }
      ],
      "name": "balanceOf",
      "outputs": [
        {
          "internalType": "uint256",
          "name": "",
          "type": "uint256"
        }
      ],
      "stateMutability": "view",
      "type": "function"
    },
    {
      "inputs": [
        {
          "internalType": "address[]",
          "name": "accounts",
          "type": "address[]"
        },
        {
          "internalType": "uint256[]",
          "name": "ids",
          "type": "uint256[]"
        }
      ],
      "name": "balanceOfBatch",
      "outputs": [
        {
          "internalType": "uint256[]",
          "name": "",
          "type": "uint256[]"
        }
      ],
      "stateMutability": "view",
      "type": "function"
    },
    {
      "inputs": [
        {
          "internalType": "uint64",
          "name": "",
          "type": "uint64"
        }
      ],
      "name": "category",
      "outputs": [
        {
          "internalType": "string",
          "name": "",
          "type": "string"
        }
      ],
      "stateMutability": "view",
      "type": "function"
    },
    {
      "inputs": [],
      "name": "categoryId",
      "outputs": [
        {
          "internalType": "uint64",
          "name": "",
          "type": "uint64"
        }
      ],
      "stateMutability": "view",
      "type": "function"
    },
    {
      "inputs": [
        {
          "internalType": "uint256",
          "name": "id",
          "type": "uint256"
        }
      ],
      "name": "exists",
      "outputs": [
        {
          "internalType": "bool",
          "name": "",
          "type": "bool"
        }
      ],
      "stateMutability": "view",
      "type": "function"
    },
    {
      "inputs": [],
      "name": "getLastTokenId",
      "outputs": [
        {
          "internalType": "uint256",
          "name": "",
          "type": "uint256"
        }
      ],
      "stateMutability": "view",
      "type": "function"
    },
    {
      "inputs": [
        {
          "internalType": "bytes32",
          "name": "role",
          "type": "bytes32"
        }
      ],
      "name": "getRoleAdmin",
      "outputs": [
        {
          "internalType": "bytes32",
          "name": "",
          "type": "bytes32"
        }
      ],
      "stateMutability": "view",
      "type": "function"
    },
    {
      "inputs": [
        {
          "internalType": "bytes32",
          "name": "role",
          "type": "bytes32"
        },
        {
          "internalType": "address",
          "name": "account",
          "type": "address"
        }
      ],
      "name": "grantRole",
      "outputs": [],
      "stateMutability": "nonpayable",
      "type": "function"
    },
    {
      "inputs": [
        {
          "internalType": "bytes32",
          "name": "role",
          "type": "bytes32"
        },
        {
          "internalType": "address",
          "name": "account",
          "type": "address"
        }
      ],
      "name": "hasRole",
      "outputs": [
        {
          "internalType": "bool",
          "name": "",
          "type": "bool"
        }
      ],
      "stateMutability": "view",
      "type": "function"
    },
    {
      "inputs": [
        {
          "internalType": "address",
          "name": "account",
          "type": "address"
        },
        {
          "internalType": "address",
          "name": "operator",
          "type": "address"
        }
      ],
      "name": "isApprovedForAll",
      "outputs": [
        {
          "internalType": "bool",
          "name": "",
          "type": "bool"
        }
      ],
      "stateMutability": "view",
      "type": "function"
    },
    {
      "inputs": [
        {
          "internalType": "uint64",
          "name": "",
          "type": "uint64"
        }
      ],
      "name": "manufactor",
      "outputs": [
        {
          "internalType": "string",
          "name": "",
          "type": "string"
        }
      ],
      "stateMutability": "view",
      "type": "function"
    },
    {
      "inputs": [],
      "name": "manufactorId",
      "outputs": [
        {
          "internalType": "uint64",
          "name": "",
          "type": "uint64"
        }
      ],
      "stateMutability": "view",
      "type": "function"
    },
    {
      "inputs": [
        {
          "internalType": "address",
          "name": "account",
          "type": "address"
        },
        {
          "internalType": "uint256",
          "name": "amount",
          "type": "uint256"
        },
        {
          "internalType": "uint64",
          "name": "categoryID",
          "type": "uint64"
        },
        {
          "internalType": "uint64",
          "name": "manufactorID",
          "type": "uint64"
        },
        {
          "internalType": "uint256",
          "name": "originToken",
          "type": "uint256"
        }
      ],
      "name": "mint",
      "outputs": [],
      "stateMutability": "nonpayable",
      "type": "function"
    },
    {
      "inputs": [
        {
          "internalType": "address",
          "name": "to",
          "type": "address"
        },
        {
          "internalType": "uint256[]",
          "name": "ids",
          "type": "uint256[]"
        },
        {
          "internalType": "uint256[]",
          "name": "amounts",
          "type": "uint256[]"
        },
        {
          "internalType": "bytes",
          "name": "data",
          "type": "bytes"
        }
      ],
      "name": "mintBatch",
      "outputs": [],
      "stateMutability": "nonpayable",
      "type": "function"
    },
    {
      "inputs": [
        {
          "internalType": "bytes32",
          "name": "role",
          "type": "bytes32"
        },
        {
          "internalType": "address",
          "name": "account",
          "type": "address"
        }
      ],
      "name": "renounceRole",
      "outputs": [],
      "stateMutability": "nonpayable",
      "type": "function"
    },
    {
      "inputs": [
        {
          "internalType": "bytes32",
          "name": "role",
          "type": "bytes32"
        },
        {
          "internalType": "address",
          "name": "account",
          "type": "address"
        }
      ],
      "name": "revokeRole",
      "outputs": [],
      "stateMutability": "nonpayable",
      "type": "function"
    },
    {
      "inputs": [
        {
          "internalType": "address",
          "name": "from",
          "type": "address"
        },
        {
          "internalType": "address",
          "name": "to",
          "type": "address"
        },
        {
          "internalType": "uint256[]",
          "name": "ids",
          "type": "uint256[]"
        },
        {
          "internalType": "uint256[]",
          "name": "amounts",
          "type": "uint256[]"
        },
        {
          "internalType": "bytes",
          "name": "data",
          "type": "bytes"
        }
      ],
      "name": "safeBatchTransferFrom",
      "outputs": [],
      "stateMutability": "nonpayable",
      "type": "function"
    },
    {
      "inputs": [
        {
          "internalType": "address",
          "name": "from",
          "type": "address"
        },
        {
          "internalType": "address",
          "name": "to",
          "type": "address"
        },
        {
          "internalType": "uint256",
          "name": "id",
          "type": "uint256"
        },
        {
          "internalType": "uint256",
          "name": "amount",
          "type": "uint256"
        },
        {
          "internalType": "bytes",
          "name": "data",
          "type": "bytes"
        }
      ],
      "name": "safeTransferFrom",
      "outputs": [],
      "stateMutability": "nonpayable",
      "type": "function"
    },
    {
      "inputs": [
        {
          "internalType": "address",
          "name": "operator",
          "type": "address"
        },
        {
          "internalType": "bool",
          "name": "approved",
          "type": "bool"
        }
      ],
      "name": "setApprovalForAll",
      "outputs": [],
      "stateMutability": "nonpayable",
      "type": "function"
    },
    {
      "inputs": [
        {
          "internalType": "string",
          "name": "newuri",
          "type": "string"
        }
      ],
      "name": "setURI",
      "outputs": [],
      "stateMutability": "nonpayable",
      "type": "function"
    },
    {
      "inputs": [
        {
          "internalType": "bytes4",
          "name": "interfaceId",
          "type": "bytes4"
        }
      ],
      "name": "supportsInterface",
      "outputs": [
        {
          "internalType": "bool",
          "name": "",
          "type": "bool"
        }
      ],
      "stateMutability": "view",
      "type": "function"
    },
    {
      "inputs": [
        {
          "internalType": "uint256",
          "name": "",
          "type": "uint256"
        }
      ],
      "name": "tokenCategory",
      "outputs": [
        {
          "internalType": "uint64",
          "name": "",
          "type": "uint64"
        }
      ],
      "stateMutability": "view",
      "type": "function"
    },
    {
      "inputs": [
        {
          "internalType": "uint256",
          "name": "_tokenId",
          "type": "uint256"
        }
      ],
      "name": "tokenData",
      "outputs": [
        {
          "internalType": "string",
          "name": "",
          "type": "string"
        },
        {
          "internalType": "string",
          "name": "",
          "type": "string"
        },
        {
          "internalType": "string",
          "name": "",
          "type": "string"
        }
      ],
      "stateMutability": "view",
      "type": "function"
    },
    {
      "inputs": [
        {
          "internalType": "uint256",
          "name": "",
          "type": "uint256"
        }
      ],
      "name": "tokenManufactor",
      "outputs": [
        {
          "internalType": "uint64",
          "name": "",
          "type": "uint64"
        }
      ],
      "stateMutability": "view",
      "type": "function"
    },
    {
      "inputs": [
        {
          "internalType": "uint256",
          "name": "",
          "type": "uint256"
        }
      ],
      "name": "tokenOrigin",
      "outputs": [
        {
          "internalType": "uint256",
          "name": "",
          "type": "uint256"
        }
      ],
      "stateMutability": "view",
      "type": "function"
    },
    {
      "inputs": [
        {
          "internalType": "uint256",
          "name": "id",
          "type": "uint256"
        }
      ],
      "name": "totalSupply",
      "outputs": [
        {
          "internalType": "uint256",
          "name": "",
          "type": "uint256"
        }
      ],
      "stateMutability": "view",
      "type": "function"
    },
    {
      "inputs": [
        {
          "internalType": "uint256",
          "name": "_tokenId",
          "type": "uint256"
        }
      ],
      "name": "uri",
      "outputs": [
        {
          "internalType": "string",
          "name": "",
          "type": "string"
        }
      ],
      "stateMutability": "view",
      "type": "function"
    }
  ],
  "bytecode": {
    "object": "0x60806040523480156200001157600080fd5b506040518060600160405280602e815260200162002e3b602e91396200003781620001d3565b5062000045600033620001ec565b620000717f7804d923f43a17d325d77e781528e0793b2edd9890ab45fc64efd7b4b427744c33620001ec565b6200009d7f9f2df0fed2c77648de5860a4cc508cd0818c85b8b8a1ab4ceeef8d981c8956a633620001ec565b604080518082019091526005815264746573746560d81b60208083019182526104d2600052600690529051620000f5917f0af8f2fb2ef478e835c37d5a7746fa7cce8f3bd6e03d40fad8c7f790c264634f9162000290565b50600780546001600160401b0316906000620001118362000336565b82546001600160401b039182166101009390930a92830291909202199091161790555060408051808201909152600581526454656c636f60d81b60208083019182526104d26000526008905290516200018c917f053f0bc823ce370947f3bf8b8ecd946929be09bac1075215455a739b9362f2a59162000290565b50600980546001600160401b0316906000620001a88362000336565b91906101000a8154816001600160401b0302191690836001600160401b0316021790555050620003af565b8051620001e890600290602084019062000290565b5050565b60008281526003602090815260408083206001600160a01b038516845290915290205460ff16620001e85760008281526003602090815260408083206001600160a01b03851684529091529020805460ff191660011790556200024c3390565b6001600160a01b0316816001600160a01b0316837f2f8788117e7eff1d82e926ec794901d17c78024a50270940304540a733656f0d60405160405180910390a45050565b8280546200029e9062000373565b90600052602060002090601f016020900481019282620002c257600085556200030d565b82601f10620002dd57805160ff19168380011785556200030d565b828001600101855582156200030d579182015b828111156200030d578251825591602001919060010190620002f0565b506200031b9291506200031f565b5090565b5b808211156200031b576000815560010162000320565b60006001600160401b038281166002600160401b031981016200036957634e487b7160e01b600052601160045260246000fd5b6001019392505050565b600181811c908216806200038857607f821691505b602082108103620003a957634e487b7160e01b600052602260045260246000fd5b50919050565b612a7c80620003bf6000396000f3fe608060405234801561001057600080fd5b50600436106101fa5760003560e01c80637f3457101161011a578063b3af2f14116100ad578063d53913931161007c578063d5391393146104bb578063d547741f146104e2578063d96d5632146104f5578063e985e9c51461051e578063f242432a1461055a57600080fd5b8063b3af2f1414610453578063b4b5b48f14610466578063b503a2b914610488578063bd85b0391461049b57600080fd5b806395a2b8b9116100e957806395a2b8b914610412578063981c9b9d14610425578063a217fddf14610438578063a22cb4651461044057600080fd5b80637f345710146103bd57806383c4c00d146103e457806390318626146103ec57806391d14854146103ff57600080fd5b8063248a9ca3116101925780633a215f46116101615780633a215f461461031a5780634b466b1b1461035b5780634e1273f41461037b5780634f558e791461039b57600080fd5b8063248a9ca3146102be5780632eb2c2d6146102e15780632f2ff15d146102f457806336568abe1461030757600080fd5b80630e89341c116101ce5780630e89341c1461027257806319feb1a1146102855780631dba355d146102985780631f7fdffa146102ab57600080fd5b8062fdd58e146101ff57806301ffc9a71461022557806302fe5305146102485780630dccc9ad1461025d575b600080fd5b61021261020d366004611e48565b61056d565b6040519081526020015b60405180910390f35b610238610233366004611e88565b610603565b604051901515815260200161021c565b61025b610256366004611f5a565b610614565b005b61026561064b565b60405161021c9190611fe6565b610265610280366004611ff9565b6106d9565b610265610293366004612029565b610781565b61025b6102a6366004611f5a565b61079a565b61025b6102b93660046120d8565b610809565b6102126102cc366004611ff9565b60009081526003602052604090206001015490565b61025b6102ef366004612170565b61083a565b61025b610302366004612219565b61087f565b61025b610315366004612219565b6108a4565b610343610328366004611ff9565b600b602052600090815260409020546001600160401b031681565b6040516001600160401b03909116815260200161021c565b610212610369366004611ff9565b600c6020526000908152604090205481565b61038e610389366004612245565b61091e565b60405161021c919061234a565b6102386103a9366004611ff9565b600090815260046020526040902054151590565b6102127f7804d923f43a17d325d77e781528e0793b2edd9890ab45fc64efd7b4b427744c81565b610212610a47565b61025b6103fa36600461235d565b610a57565b61023861040d366004612219565b610b2f565b600954610343906001600160401b031681565b610265610433366004612029565b610b5a565b610212600081565b61025b61044e3660046123a1565b610b73565b61025b6104613660046123dd565b610b7e565b610479610474366004611ff9565b610d71565b60405161021c93929190612432565b600754610343906001600160401b031681565b6102126104a9366004611ff9565b60009081526004602052604090205490565b6102127f9f2df0fed2c77648de5860a4cc508cd0818c85b8b8a1ab4ceeef8d981c8956a681565b61025b6104f0366004612219565b610f8d565b610343610503366004611ff9565b600a602052600090815260409020546001600160401b031681565b61023861052c366004612475565b6001600160a01b03918216600090815260016020908152604080832093909416825291909152205460ff1690565b61025b61056836600461249f565b610fb2565b60006001600160a01b0383166105dd5760405162461bcd60e51b815260206004820152602a60248201527f455243313135353a2061646472657373207a65726f206973206e6f742061207660448201526930b634b21037bbb732b960b11b60648201526084015b60405180910390fd5b506000908152602081815260408083206001600160a01b03949094168352929052205490565b600061060e82610ff7565b92915050565b7f7804d923f43a17d325d77e781528e0793b2edd9890ab45fc64efd7b4b427744c61063e8161101c565b61064782611029565b5050565b6002805461065890612503565b80601f016020809104026020016040519081016040528092919081815260200182805461068490612503565b80156106d15780601f106106a6576101008083540402835291602001916106d1565b820191906000526020600020905b8154815290600101906020018083116106b457829003601f168201915b505050505081565b60606106e3610a47565b8211156107255760405162461bcd60e51b815260206004820152601060248201526f1a5b9d985b1a59081d1bdad95b881a5960821b60448201526064016105d4565b60006002805461073490612503565b905011610750576040518060200160405280600081525061060e565b600261075b8361103c565b60405160200161076c929190612559565b60405160208183030381529060405292915050565b6008602052600090815260409020805461065890612503565b60006107a58161101c565b600980546001600160401b03169060006107be83612629565b82546101009290920a6001600160401b03818102199093169183160217909155600954166000908152600860209081526040909120845161080493509091850190611d93565b505050565b7f9f2df0fed2c77648de5860a4cc508cd0818c85b8b8a1ab4ceeef8d981c8956a66108338161101c565b5050505050565b6001600160a01b0385163314806108565750610856853361052c565b6108725760405162461bcd60e51b81526004016105d49061264f565b6108338585858585611144565b60008281526003602052604090206001015461089a8161101c565b610804838361132f565b6001600160a01b03811633146109145760405162461bcd60e51b815260206004820152602f60248201527f416363657373436f6e74726f6c3a2063616e206f6e6c792072656e6f756e636560448201526e103937b632b9903337b91039b2b63360891b60648201526084016105d4565b61064782826113b5565b606081518351146109835760405162461bcd60e51b815260206004820152602960248201527f455243313135353a206163636f756e747320616e6420696473206c656e677468604482015268040dad2e6dac2e8c6d60bb1b60648201526084016105d4565b600083516001600160401b0381111561099e5761099e611ea5565b6040519080825280602002602001820160405280156109c7578160200160208202803683370190505b50905060005b8451811015610a3f57610a128582815181106109eb576109eb61269e565b6020026020010151858381518110610a0557610a0561269e565b602002602001015161056d565b828281518110610a2457610a2461269e565b6020908102919091010152610a38816126b4565b90506109cd565b509392505050565b6000610a5260055490565b905090565b6000610a628161101c565b6001600160401b03821615801590610a9c57506001600160401b03821660009081526006602052604081208054610a9890612503565b9050115b15610ad0576001600160401b03821660009081526006602090815260409091208451610aca92860190611d93565b50505050565b600780546001600160401b0316906000610ae983612629565b82546101009290920a6001600160401b038181021990931691831602179091556007541660009081526006602090815260409091208551610aca93509091860190611d93565b60009182526003602090815260408084206001600160a01b0393909316845291905290205460ff1690565b6006602052600090815260409020805461065890612503565b61064733838361141c565b7f9f2df0fed2c77648de5860a4cc508cd0818c85b8b8a1ab4ceeef8d981c8956a6610ba88161101c565b610bb6600580546001019055565b6000610bc160055490565b6001600160401b038516600090815260086020526040812080549293509091610be990612503565b905011610c2f5760405162461bcd60e51b81526020600482015260146024820152731b585b9d599858dd1bdc881b9bdd08199bdd5b9960621b60448201526064016105d4565b6000818152600a60209081526040808320805467ffffffffffffffff19166001600160401b038981169190911790915588168352600690915281208054610c7590612503565b905011610cb95760405162461bcd60e51b815260206004820152601260248201527118d85d1959dbdc9e481b9bdd08199bdd5b9960721b60448201526064016105d4565b6000818152600b60205260409020805467ffffffffffffffff19166001600160401b0387161790558215610d3d57828111610d275760405162461bcd60e51b815260206004820152600e60248201526d34b73b30b634b21037b934b3b4b760911b60448201526064016105d4565b6000818152600c60205260409020839055610d4d565b6000818152600c60205260408120555b610d68878288604051806020016040528060008152506114fc565b50505050505050565b6060806060610d7e610a47565b841115610dc05760405162461bcd60e51b815260206004820152601060248201526f1a5b9d985b1a59081d1bdad95b881a5960821b60448201526064016105d4565b60008060028054610dd090612503565b905011610dec5760405180602001604052806000815250610e18565b6002610df78661103c565b604051602001610e08929190612559565b6040516020818303038152906040525b6000868152600a60209081526040808320546001600160401b031683526008909152812080549293509091610e4c90612503565b80601f0160208091040260200160405190810160405280929190818152602001828054610e7890612503565b8015610ec55780601f10610e9a57610100808354040283529160200191610ec5565b820191906000526020600020905b815481529060010190602001808311610ea857829003601f168201915b5050506000898152600b60209081526040808320546001600160401b031683526006909152812080549495509093909250610f009150612503565b80601f0160208091040260200160405190810160405280929190818152602001828054610f2c90612503565b8015610f795780601f10610f4e57610100808354040283529160200191610f79565b820191906000526020600020905b815481529060010190602001808311610f5c57829003601f168201915b50969b959a50929850939650505050505050565b600082815260036020526040902060010154610fa88161101c565b61080483836113b5565b6001600160a01b038516331480610fce5750610fce853361052c565b610fea5760405162461bcd60e51b81526004016105d49061264f565b6108338585858585611616565b60006001600160e01b03198216637965db0b60e01b148061060e575061060e8261174e565b611026813361179e565b50565b8051610647906002906020840190611d93565b6060816000036110635750506040805180820190915260018152600360fc1b602082015290565b8160005b811561108d5780611077816126b4565b91506110869050600a836126e3565b9150611067565b6000816001600160401b038111156110a7576110a7611ea5565b6040519080825280601f01601f1916602001820160405280156110d1576020820181803683370190505b5090505b841561113c576110e66001836126f7565b91506110f3600a8661270e565b6110fe906030612722565b60f81b8183815181106111135761111361269e565b60200101906001600160f81b031916908160001a905350611135600a866126e3565b94506110d5565b949350505050565b81518351146111a65760405162461bcd60e51b815260206004820152602860248201527f455243313135353a2069647320616e6420616d6f756e7473206c656e677468206044820152670dad2e6dac2e8c6d60c31b60648201526084016105d4565b6001600160a01b0384166111cc5760405162461bcd60e51b81526004016105d49061273a565b336111db8187878787876117f7565b60005b84518110156112c15760008582815181106111fb576111fb61269e565b6020026020010151905060008583815181106112195761121961269e565b602090810291909101810151600084815280835260408082206001600160a01b038e1683529093529190912054909150818110156112695760405162461bcd60e51b81526004016105d49061277f565b6000838152602081815260408083206001600160a01b038e8116855292528083208585039055908b168252812080548492906112a6908490612722565b92505081905550505050806112ba906126b4565b90506111de565b50846001600160a01b0316866001600160a01b0316826001600160a01b03167f4a39dc06d4c0dbc64b70af90fd698a233a518aa5d07e595d983b8c0526c8f7fb87876040516113119291906127c9565b60405180910390a4611327818787878787611805565b505050505050565b6113398282610b2f565b6106475760008281526003602090815260408083206001600160a01b03851684529091529020805460ff191660011790556113713390565b6001600160a01b0316816001600160a01b0316837f2f8788117e7eff1d82e926ec794901d17c78024a50270940304540a733656f0d60405160405180910390a45050565b6113bf8282610b2f565b156106475760008281526003602090815260408083206001600160a01b0385168085529252808320805460ff1916905551339285917ff6391f5c32d9c69d2a47ea670b442974b53935d1edc7fd64eb21e047a839171b9190a45050565b816001600160a01b0316836001600160a01b03160361148f5760405162461bcd60e51b815260206004820152602960248201527f455243313135353a2073657474696e6720617070726f76616c20737461747573604482015268103337b91039b2b63360b91b60648201526084016105d4565b6001600160a01b03838116600081815260016020908152604080832094871680845294825291829020805460ff191686151590811790915591519182527f17307eab39ab6107e8899845ad3d59bd9653f200f220920489ca2b5937696c31910160405180910390a3505050565b6001600160a01b03841661155c5760405162461bcd60e51b815260206004820152602160248201527f455243313135353a206d696e7420746f20746865207a65726f206164647265736044820152607360f81b60648201526084016105d4565b33600061156885611960565b9050600061157585611960565b9050611586836000898585896117f7565b6000868152602081815260408083206001600160a01b038b168452909152812080548792906115b6908490612722565b909155505060408051878152602081018790526001600160a01b03808a1692600092918716917fc3d58168c5ae7397731d063d5bbf3d657854427343f4c083240f7aacaa2d0f62910160405180910390a4610d68836000898989896119ab565b6001600160a01b03841661163c5760405162461bcd60e51b81526004016105d49061273a565b33600061164885611960565b9050600061165585611960565b90506116658389898585896117f7565b6000868152602081815260408083206001600160a01b038c168452909152902054858110156116a65760405162461bcd60e51b81526004016105d49061277f565b6000878152602081815260408083206001600160a01b038d8116855292528083208985039055908a168252812080548892906116e3908490612722565b909155505060408051888152602081018890526001600160a01b03808b16928c821692918816917fc3d58168c5ae7397731d063d5bbf3d657854427343f4c083240f7aacaa2d0f62910160405180910390a4611743848a8a8a8a8a6119ab565b505050505050505050565b60006001600160e01b03198216636cdb3d1360e11b148061177f57506001600160e01b031982166303a24d0760e21b145b8061060e57506301ffc9a760e01b6001600160e01b031983161461060e565b6117a88282610b2f565b610647576117b581611a66565b6117c0836020611a78565b6040516020016117d19291906127ee565b60408051601f198184030181529082905262461bcd60e51b82526105d491600401611fe6565b611327868686868686611c1a565b6001600160a01b0384163b156113275760405163bc197c8160e01b81526001600160a01b0385169063bc197c81906118499089908990889088908890600401612863565b6020604051808303816000875af1925050508015611884575060408051601f3d908101601f19168201909252611881918101906128c1565b60015b611930576118906128de565b806308c379a0036118c957506118a46128fa565b806118af57506118cb565b8060405162461bcd60e51b81526004016105d49190611fe6565b505b60405162461bcd60e51b815260206004820152603460248201527f455243313135353a207472616e7366657220746f206e6f6e20455243313135356044820152732932b1b2b4bb32b91034b6b83632b6b2b73a32b960611b60648201526084016105d4565b6001600160e01b0319811663bc197c8160e01b14610d685760405162461bcd60e51b81526004016105d490612983565b6040805160018082528183019092526060916000919060208083019080368337019050509050828160008151811061199a5761199a61269e565b602090810291909101015292915050565b6001600160a01b0384163b156113275760405163f23a6e6160e01b81526001600160a01b0385169063f23a6e61906119ef90899089908890889088906004016129cb565b6020604051808303816000875af1925050508015611a2a575060408051601f3d908101601f19168201909252611a27918101906128c1565b60015b611a36576118906128de565b6001600160e01b0319811663f23a6e6160e01b14610d685760405162461bcd60e51b81526004016105d490612983565b606061060e6001600160a01b03831660145b60606000611a87836002612a10565b611a92906002612722565b6001600160401b03811115611aa957611aa9611ea5565b6040519080825280601f01601f191660200182016040528015611ad3576020820181803683370190505b509050600360fc1b81600081518110611aee57611aee61269e565b60200101906001600160f81b031916908160001a905350600f60fb1b81600181518110611b1d57611b1d61269e565b60200101906001600160f81b031916908160001a9053506000611b41846002612a10565b611b4c906001612722565b90505b6001811115611bc4576f181899199a1a9b1b9c1cb0b131b232b360811b85600f1660108110611b8057611b8061269e565b1a60f81b828281518110611b9657611b9661269e565b60200101906001600160f81b031916908160001a90535060049490941c93611bbd81612a2f565b9050611b4f565b508315611c135760405162461bcd60e51b815260206004820181905260248201527f537472696e67733a20686578206c656e67746820696e73756666696369656e7460448201526064016105d4565b9392505050565b6001600160a01b038516611ca15760005b8351811015611c9f57828181518110611c4657611c4661269e565b602002602001015160046000868481518110611c6457611c6461269e565b602002602001015181526020019081526020016000206000828254611c899190612722565b90915550611c989050816126b4565b9050611c2b565b505b6001600160a01b0384166113275760005b8351811015610d68576000848281518110611ccf57611ccf61269e565b602002602001015190506000848381518110611ced57611ced61269e565b6020026020010151905060006004600084815260200190815260200160002054905081811015611d705760405162461bcd60e51b815260206004820152602860248201527f455243313135353a206275726e20616d6f756e74206578636565647320746f74604482015267616c537570706c7960c01b60648201526084016105d4565b60009283526004602052604090922091039055611d8c816126b4565b9050611cb2565b828054611d9f90612503565b90600052602060002090601f016020900481019282611dc15760008555611e07565b82601f10611dda57805160ff1916838001178555611e07565b82800160010185558215611e07579182015b82811115611e07578251825591602001919060010190611dec565b50611e13929150611e17565b5090565b5b80821115611e135760008155600101611e18565b80356001600160a01b0381168114611e4357600080fd5b919050565b60008060408385031215611e5b57600080fd5b611e6483611e2c565b946020939093013593505050565b6001600160e01b03198116811461102657600080fd5b600060208284031215611e9a57600080fd5b8135611c1381611e72565b634e487b7160e01b600052604160045260246000fd5b601f8201601f191681016001600160401b0381118282101715611ee057611ee0611ea5565b6040525050565b600082601f830112611ef857600080fd5b81356001600160401b03811115611f1157611f11611ea5565b604051611f28601f8301601f191660200182611ebb565b818152846020838601011115611f3d57600080fd5b816020850160208301376000918101602001919091529392505050565b600060208284031215611f6c57600080fd5b81356001600160401b03811115611f8257600080fd5b61113c84828501611ee7565b60005b83811015611fa9578181015183820152602001611f91565b83811115610aca5750506000910152565b60008151808452611fd2816020860160208601611f8e565b601f01601f19169290920160200192915050565b602081526000611c136020830184611fba565b60006020828403121561200b57600080fd5b5035919050565b80356001600160401b0381168114611e4357600080fd5b60006020828403121561203b57600080fd5b611c1382612012565b60006001600160401b0382111561205d5761205d611ea5565b5060051b60200190565b600082601f83011261207857600080fd5b8135602061208582612044565b6040516120928282611ebb565b83815260059390931b85018201928281019150868411156120b257600080fd5b8286015b848110156120cd57803583529183019183016120b6565b509695505050505050565b600080600080608085870312156120ee57600080fd5b6120f785611e2c565b935060208501356001600160401b038082111561211357600080fd5b61211f88838901612067565b9450604087013591508082111561213557600080fd5b61214188838901612067565b9350606087013591508082111561215757600080fd5b5061216487828801611ee7565b91505092959194509250565b600080600080600060a0868803121561218857600080fd5b61219186611e2c565b945061219f60208701611e2c565b935060408601356001600160401b03808211156121bb57600080fd5b6121c789838a01612067565b945060608801359150808211156121dd57600080fd5b6121e989838a01612067565b935060808801359150808211156121ff57600080fd5b5061220c88828901611ee7565b9150509295509295909350565b6000806040838503121561222c57600080fd5b8235915061223c60208401611e2c565b90509250929050565b6000806040838503121561225857600080fd5b82356001600160401b038082111561226f57600080fd5b818501915085601f83011261228357600080fd5b8135602061229082612044565b60405161229d8282611ebb565b83815260059390931b85018201928281019150898411156122bd57600080fd5b948201945b838610156122e2576122d386611e2c565b825294820194908201906122c2565b965050860135925050808211156122f857600080fd5b5061230585828601612067565b9150509250929050565b600081518084526020808501945080840160005b8381101561233f57815187529582019590820190600101612323565b509495945050505050565b602081526000611c13602083018461230f565b6000806040838503121561237057600080fd5b82356001600160401b0381111561238657600080fd5b61239285828601611ee7565b92505061223c60208401612012565b600080604083850312156123b457600080fd5b6123bd83611e2c565b9150602083013580151581146123d257600080fd5b809150509250929050565b600080600080600060a086880312156123f557600080fd5b6123fe86611e2c565b94506020860135935061241360408701612012565b925061242160608701612012565b949793965091946080013592915050565b6060815260006124456060830186611fba565b82810360208401526124578186611fba565b9050828103604084015261246b8185611fba565b9695505050505050565b6000806040838503121561248857600080fd5b61249183611e2c565b915061223c60208401611e2c565b600080600080600060a086880312156124b757600080fd5b6124c086611e2c565b94506124ce60208701611e2c565b9350604086013592506060860135915060808601356001600160401b038111156124f757600080fd5b61220c88828901611ee7565b600181811c9082168061251757607f821691505b60208210810361253757634e487b7160e01b600052602260045260246000fd5b50919050565b6000815161254f818560208601611f8e565b9290920192915050565b600080845481600182811c91508083168061257557607f831692505b6020808410820361259457634e487b7160e01b86526022600452602486fd5b8180156125a857600181146125b9576125e6565b60ff198616895284890196506125e6565b60008b81526020902060005b868110156125de5781548b8201529085019083016125c5565b505084890196505b50505050505061260a6125f9828661253d565b64173539b7b760d91b815260050190565b95945050505050565b634e487b7160e01b600052601160045260246000fd5b60006001600160401b0380831681810361264557612645612613565b6001019392505050565b6020808252602f908201527f455243313135353a2063616c6c6572206973206e6f7420746f6b656e206f776e60408201526e195c881b9bdc88185c1c1c9bdd9959608a1b606082015260800190565b634e487b7160e01b600052603260045260246000fd5b6000600182016126c6576126c6612613565b5060010190565b634e487b7160e01b600052601260045260246000fd5b6000826126f2576126f26126cd565b500490565b60008282101561270957612709612613565b500390565b60008261271d5761271d6126cd565b500690565b6000821982111561273557612735612613565b500190565b60208082526025908201527f455243313135353a207472616e7366657220746f20746865207a65726f206164604082015264647265737360d81b606082015260800190565b6020808252602a908201527f455243313135353a20696e73756666696369656e742062616c616e636520666f60408201526939103a3930b739b332b960b11b606082015260800190565b6040815260006127dc604083018561230f565b828103602084015261260a818561230f565b7f416363657373436f6e74726f6c3a206163636f756e7420000000000000000000815260008351612826816017850160208801611f8e565b7001034b99036b4b9b9b4b733903937b6329607d1b6017918401918201528351612857816028840160208801611f8e565b01602801949350505050565b6001600160a01b0386811682528516602082015260a06040820181905260009061288f9083018661230f565b82810360608401526128a1818661230f565b905082810360808401526128b58185611fba565b98975050505050505050565b6000602082840312156128d357600080fd5b8151611c1381611e72565b600060033d11156128f75760046000803e5060005160e01c5b90565b600060443d10156129085790565b6040516003193d81016004833e81513d6001600160401b03816024840111818411171561293757505050505090565b828501915081518181111561294f5750505050505090565b843d87010160208285010111156129695750505050505090565b61297860208286010187611ebb565b509095945050505050565b60208082526028908201527f455243313135353a204552433131353552656365697665722072656a656374656040820152676420746f6b656e7360c01b606082015260800190565b6001600160a01b03868116825285166020820152604081018490526060810183905260a060808201819052600090612a0590830184611fba565b979650505050505050565b6000816000190483118215151615612a2a57612a2a612613565b500290565b600081612a3e57612a3e612613565b50600019019056fea264697066735822122046363e00be83f04ebd4a0e060571c7a604238c1ef15641c9dd7afcdaf9400deb64736f6c634300080d003368747470733a2f2f6f6d6e6967616961746f6b656e697a65722e6865726f6b756170702e636f6d2f746f6b656e2f",
    "linkReferences": {}
  },
  "methodIdentifiers": {
    "DEFAULT_ADMIN_ROLE()": "a217fddf",
    "MINTER_ROLE()": "d5391393",
    "URI_SETTER_ROLE()": "7f345710",
    "_uri()": "0dccc9ad",
    "addManufactor(string)": "1dba355d",
    "addOrEditCategory(string,uint64)": "90318626",
    "balanceOf(address,uint256)": "00fdd58e",
    "balanceOfBatch(address[],uint256[])": "4e1273f4",
    "category(uint64)": "981c9b9d",
    "categoryId()": "b503a2b9",
    "exists(uint256)": "4f558e79",
    "getLastTokenId()": "83c4c00d",
    "getRoleAdmin(bytes32)": "248a9ca3",
    "grantRole(bytes32,address)": "2f2ff15d",
    "hasRole(bytes32,address)": "91d14854",
    "isApprovedForAll(address,address)": "e985e9c5",
    "manufactor(uint64)": "19feb1a1",
    "manufactorId()": "95a2b8b9",
    "mint(address,uint256,uint64,uint64,uint256)": "b3af2f14",
    "mintBatch(address,uint256[],uint256[],bytes)": "1f7fdffa",
    "renounceRole(bytes32,address)": "36568abe",
    "revokeRole(bytes32,address)": "d547741f",
    "safeBatchTransferFrom(address,address,uint256[],uint256[],bytes)": "2eb2c2d6",
    "safeTransferFrom(address,address,uint256,uint256,bytes)": "f242432a",
    "setApprovalForAll(address,bool)": "a22cb465",
    "setURI(string)": "02fe5305",
    "supportsInterface(bytes4)": "01ffc9a7",
    "tokenCategory(uint256)": "3a215f46",
    "tokenData(uint256)": "b4b5b48f",
    "tokenManufactor(uint256)": "d96d5632",
    "tokenOrigin(uint256)": "4b466b1b",
    "totalSupply(uint256)": "bd85b039",
    "uri(uint256)": "0e89341c"
  },
  "id": 23
}